:020000041100E9
:10000000900A001899000011A30000111F3300117D
:10001000C53600110D0E0011E7540011000000005C
:10002000000000000000000000000000AD00001112
:10003000C500001100000000C7000011D94B0011DD
:10004000B9320011CB000011CB000011CB00001120
:10005000CB000011110E0011CB000011CB000011DC
:10006000CB000011CB0000119D5300112954001149
:10007000CB000011CB000011CB000011CB00001110
:10008000DFF810D000F010FB00480047E5640011D5
:10009000AFF30080900A00180C4880470C480047D6
:1000A000FEE7FEE7FEE7FEE7FEE7FEE70420714617
:1000B000084203D0EFF3098006490847EFF30880B0
:1000C00004490847FEE7FEE7FEE7FEE7154C00118E
:1000D00081000011A1000011002800DA40427047A1
:1000E00040EA01039B0703D009E008C9121F08C0BA
:1000F000042AFAD203E011F8013B00F8013B521E3A
:10010000F9D27047D2B201E000F8012B491EFBD2B0
:1001100070470022F6E710B513460A460446194612
:10012000FFF7F0FF204610BD80EA010210B502F093
:100130000043400022D04A001FD0010E01EB1261A3
:10014000C0F35600C2F3560240F4000042F400022D
:10015000A0FB022000047F39140400D0401C50EAA8
:10016000124001D44000491EC2B20C0604EBD0106C
:10017000401C4008802A02D003E0002010BD20F07F
:100180000100002900DA0020184310BD30B480EAD5
:10019000010202F0004530F0004221F0004013D08F
:1001A00090B1C30DD40DC2F31601C0F31600E41ACA
:1001B00041F4000140F400027D34914201D3641CFB
:1001C00000E04900002C02DA30BC002070474FF4F8
:1001D00000000023914201D3891A034340084FEAEB
:1001E0004101F7D151B1914202D14FF0004105E0F8
:1001F00002D24FF0010101E06FF0010103EBC450A6
:10020000284430BC00F0BCB9420005D0C0F3C7524E
:100210005242914201DC0020704700EBC150704710
:100220002DE9FE4F81EA030404F0004421F000416F
:1002300000944FF0000B23F0004350EA01045ED01D
:1002400052EA03045BD0C3F30A54C1F30A552C44A9
:10025000A4F2F3340194A0FB0254C1F3130141F45E
:100260008011C3F3130343F4801301FB024400FB2A
:10027000034E840A970A44EA815447EA8357A4FB51
:10028000076802958D0A05FB07854FEA932C04FB4E
:100290000C542705029D4FEA065847EA1637B5EB7E
:1002A00008056EEB070C870E920E47EA811742EAAB
:1002B0008312A7FB0201B6EB0B0164EB00042B0DCC
:1002C00043EA0C335E1844EB1C50DA465146E7FB18
:1002D0000201C5F313044FEA0B3343EA14534FEA08
:1002E0000432019C43EA0603A4F10C040294009C2E
:1002F000CDE900B400F08AF903B0BDE8F08F00202A
:100300000146F9E72DE9F04D81EA030404F0004BC2
:1003100021F0004514464FF0000A23F0004150EA56
:10032000050220D054EA01021DD0C5F30A57024647
:10033000C5F31303C1F31300C1F30A5640F480154B
:1003400043F48013A7EB0608101BD64608F2FD38CD
:1003500073EB050002D308F1010801E092185B413C
:10036000B8F1000F03DA00200146BDE8F08D00204F
:100370004FF48011064684460EE0171B73EB050709
:1003800005D3121B63EB050306434CEA010C490835
:100390004FEA300092185B4150EA0107EDD152EA72
:1003A000030012D082EA040083EA0501084305D065
:1003B000101BAB4106D20122002306E000224FF0C1
:1003C000004302E06FF0010253101AEB06004CEB01
:1003D000085110EB0A0041EB0B01BDE8F04D00F0B5
:1003E00006B970B521F0004303430CD0C1F30A55A0
:1003F0000024D5EB040564EB0403D617AD1AB34112
:1004000002DB0020014670BD201841EB025170BD97
:1004100096230022114600F0BCB800F0004220F004
:100420000040C10DC0F3160040F400007F2901DA3E
:1004300000207047962903DCC1F19601C84001E015
:1004400096398840002AF4D04042704720F000409E
:10045000C10DC0F3160040F400007F2901DA00202E
:100460007047962903DCC1F19601C8407047963960
:100470008840704770B5C1F30A5201F0004500246E
:10048000C1F3130140F2FF3341F480119A4201DAC3
:10049000002070BD40F233439A42A2F2334203DCA3
:1004A000524200F05DF800E090402C43F1D0404211
:1004B00070BDC1F30A5210B5C1F3130140F2FF330E
:1004C00041F480119A4201DA002010BD40F233431A
:1004D0009A42A2F2334203DC524200F041F810BDCE
:1004E000904010BD00F0004230F000400AD0C10D35
:1004F00001F56071C0F3160042EA0151C2084007DD
:100500001143704700200146704701F0004330B4AA
:1005100021F0004150EA010206D00A0DA2F56072F6
:10052000C1F31301002A02DC30BC00207047440FE5
:1005300044EAC104C100E01830BC00EBC25000F036
:100540001FB8202A04DB203A00FA02F1002070478D
:100550009140C2F1200320FA03F319439040704701
:10056000202A04DB203A21FA02F00021704721FA08
:1005700002F3D040C2F1200291400843194670476F
:100580000029A8BF7047401C490008BF20F00100A7
:10059000704710B4B0FA80FC00FA0CF050EA010485
:1005A00004BF10BC704749B1CCF1200421FA04F417
:1005B00011FA0CF118BF012121430843A3EB0C01F0
:1005C000CB1D4FEA00614FEA102042BF002010BC53
:1005D000704700EBC35010440029A4BF10BC704703
:1005E000401C490008BF20F0010010BC704710B546
:1005F000141E73F1000408DA401C41F10001921846
:100600005B411A4301D120F0010010BD2DE9F04DEE
:1006100092469B4611B1B1FA81F202E0B0FA80F243
:1006200020329046FFF78DFF04460F4640EA0A004D
:1006300041EA0B0153465A46084313D0114653EA88
:10064000010019D0C8F140025046FFF789FF054666
:100650000E46504659464246FFF773FF084305D001
:10066000012004E020463946BDE8F08D0020054316
:1006700046EAE0762C4337430A986305E40AA0EB88
:1006800008000022FD0A44EA47540A3002D500203F
:100690000146E9E7010510196941DDE9084500193E
:1006A0006941BDE8F04DA2E7064C074D06E0E06861
:1006B00040F0010394E8070098471034AC42F6D3A9
:1006C000FFF7E2FC3C8700115C87001170B58C18C5
:1006D00010F8015B15F0070301D110F8013B2A1156
:1006E00006D110F8012B03E010F8016B01F8016B43
:1006F0005B1EF9D12B0705D40023521E0DD401F83F
:10070000013BFAE710F8013BCB1A921C03E013F807
:10071000015B01F8015B521EF9D5A142D8D300203C
:1007200070BD0000074A0346A2EB810100200A6861
:1007300002F40032520C04D00868C0F3890018801B
:1007400001207047704000404FF0402040F20131DE
:100750004160502181610021C16182150265164A04
:100760008260164AC26041624FF4206282624FF09A
:100770000A12C2620167C166816641660166C1658F
:10078000816501644115C1670D4921224A6001223A
:100790008A614FF0502212F8603F23F0010313707A
:1007A000021D136843F440731360026842F00102B3
:1007B000026000150860704701000500020001009A
:1007C0000080014811480021416140F201728261BC
:1007D0000222C2610E4B40F8803B0E4B40F80C3BAE
:1007E0000D4B40F8083949F6292340F80C3B4BF6ED
:1007F000894340F85C39094B436582644264416136
:100800004166016781664167C167704700C0014862
:1008100001000200002F2F18008ABEC0CD9ED3C653
:1008200070B52248B0F90410002900DA4942204E80
:100830008DB2314672880988A2F57F43FF3B14D000
:10084000C2EBC20303EB02120A441823B2FBF3F219
:10085000728032887388D21A144B12B282801C784C
:100860000023002A07DC14B102E07180F1E7C380A5
:100870000124047003E0012C00D1C3800370052D16
:1008800001D2C38008E01E2D02D9C380718003E02D
:10089000C188B1F5C87F03D2C188491CC18070BD31
:1008A000C38070881044708070BD00004400001840
:1008B0006802001810B50F49142003F0BDFD0D4962
:1008C00040F2E1332239488CA0F10A029A420BD857
:1008D000002281F82A20084ABDE810402723A2F10F
:1008E000500100B200F008BB012081F82A00B1F9E4
:1008F0000E0010BD8A020018FA66001110B50749F3
:10090000212003F099FD054840F2EC411038008A9F
:100910004843062101EB902080B210BD78020018F8
:1009200010B52849222003F087FD26492320891C81
:1009300003F082FD23492420091D03F07DFD214998
:100940002520891D03F078FD1E492820083103F079
:1009500073FD1C4926200A3103F06EFD194927203A
:100960000C3103F069FD174929200E3103F064FDB5
:10097000144C1549123C208CC0EB001001EB4010C8
:10098000E72190FBF1F001B2104800F1080241802C
:10099000B2F90030506803FB0101B2F90230C01314
:1009A00003FB101000F31E005060C013E081FFF73E
:1009B00081FFA081FFF7A2FF2080BDE81040FFF774
:1009C0002FBF00007A020018D8FBFEFF4400001879
:1009D0002DE9F05F9946DDE90C63DDE90A74DD7904
:1009E0004FF000084FF0010CBDB11D7A4FF0020E20
:1009F0004FF0030B4FF0FF3A012D15D0022D2CD0F4
:100A0000032D3DD0A04256DA1D88954253D383F87A
:100A100008B081F800A0BDE8F09F83F807C083F814
:100A200008C083F80980F6E75A7A2AB193F90600DC
:100A30005045ECD098BB2DE0484502DD83F806C058
:100A400006E0A04202DA83F806A001E083F80680FF
:100A50009879087083F809C0DDE7A04202DA1D88A2
:100A60009542D4D2B84202DA9D88954212D21A4AEF
:100A7000791E7F1E974200DA1146024609B226E02F
:100A8000484502DD5C8894421AD2B04208DD9C8859
:100A9000944205D30420187281F80080BBE70FE070
:100AA000741C761CB6F5004F01DB47F6FF74024656
:100AB000494620B20CE0484507DD5D88954204D3E5
:100AC00083F808E081F800C0A5E7024649462046C1
:100AD000BDE8F05F04F0E2BC0080FFFF0022CA71B5
:100AE0000A720A804A808A808A714A72027070474C
:100AF0007FB56FF02503CDE902329D1E9424962325
:100B00000A22CDE90045FFF763FF7FBDFFF7E6BF8F
:100B1000184810B5006800242A2104801648FFF701
:100B2000F8FA15488E212A30FFF7F3FA12481821F7
:100B3000B830FFF7EEFA10480E21D030FFF7E9FA8F
:100B400003F006FB0C4AA432A2F19401481E00F007
:100B5000D6FD09486C3003F0DBF802F017FB0649BC
:100B60004831A1F13A00FFF7B9FF0348D030447093
:100B7000847010BD08860011800500182DE9F04131
:100B80008AB003F0B3F9434CA08980B10020414EF4
:100B9000B83E707403F0B6FA06F1D005DFF8F880BD
:100BA000B07CE872D8F80000407810B112E0012063
:100BB000EDE73848374B1438A0F194014A1ECDE9CF
:100BC000002102902279B4F90210B4F90000A13B8F
:100BD00000F076FDB6F90A20B4F91610607D03F036
:100BE000A3F82C494C3901F16E02531ECDE90632AF
:100BF000971E05970891217D227C02AF09AB0192D7
:100C000087E82A00E17B0091A37B627CF17D02F002
:100C100093FFD8F800004746407818B902F0ACF9C5
:100C2000B07DE8706FF025011A488B1E7038CDE951
:100C300002108F22CDE900231649B4F90200912356
:100C4000C822AA39FFF7C4FE96F90E0000280CDD71
:100C5000BDF9240040F6F611884201DDA98000E0CC
:100C6000A8803868407818B106E0BDF82400F7E79E
:100C7000F07BA871307CE871386839684078401C96
:100C8000C0B24870092802D93968002048700AB0FB
:100C9000BDE8F08138060018088600110A4910B531
:100CA0004888401C80B24880032803D30020488035
:100CB00000F00AFE05F083F800F0C6FB0348018847
:100CC000491C018010BD0000E00000181A00001847
:100CD00001490860086070475460005010484CF6A5
:100CE000162141620F490162EFF3108111F0010FEB
:100CF00072B60D4B4FF098021A700C4A82614FF099
:100D0000A8021A7000D162B6094981600021016011
:100D100041600161416107488160042101627047BF
:100D2000004003400100550CAC500050011E1E0055
:100D30005151020100800148F0B540EA0107174314
:100D40000024FF07DDE9056557EAC37C164F05D18E
:100D50005FEAC67C02D15FEAC57C08D04FF0013C57
:100D6000C7F800C040F2011CC7F804C000E001242D
:100D700043F001031B0641F0010143EA014142F047
:100D8000010241EA0221014341F00100386045F0CF
:100D9000010046EA002040F001007860002C02D0FB
:100DA000002038607860F0BD00400340F0B5038853
:100DB0008B4205D35C1AA34200D20024A4B200E007
:100DC00000244FF4803719447E1EB94200D33146C7
:100DD0008DB289B2B1F5005F01D341F6FF750121F3
:100DE0001180002100EB41035B88A3420AD3AB4290
:100DF00008D813889C465B1C0CF1010CBC4500D341
:100E000033461380491C0529ECDBF0BD7047000018
:100E100070B5114CB4F84400104D400607D5B4F835
:100E20006800400603D503F00DFF40202880B4F889
:100E30004400000607D5B4F86800000603D503F0A7
:100E400045FF802028804FF0502090F8901141F00D
:100E5000100180F8901170BD00C000400CC000402F
:100E60001A488021018640F2E7318184891E01857C
:100E700040F21E718185002120F8141F81800181BC
:100E8000022282812E23A0F84430A0F84C1048F2B0
:100E90003F03A0F84830A0F8401040F23333838578
:100EA000818751028186C02101864FF4A851A0F8A4
:100EB0006C104BF22531A0F85810A0F860200348C0
:100EC000001D4021018001140180704700C00040D6
:100ED00003480121C160016841F4806101607047ED
:100EE0000080014810B5002303E0CC5CC4545B1CB7
:100EF000DBB29342F9D310BD30B5B1F900505C08B4
:100F0000854203DDB2F9000030BD641E31F9145092
:100F1000854203DD002CF8D100E0641C9C4205D220
:100F200001EB4405B5F902508542F6DD01EB4405BD
:100F300031F814106D88401A6D1A00048009ADB2A2
:100F4000B0FBF5F19C4202D132F9140030BD02EB46
:100F50004400B0F9023032F914001A1A4A4300EB87
:100F6000A22000B230BD03004FF0000007D013886C
:100F70008B4202D25B1C1380704701207047002116
:100F800011807047034802498160002181627047E7
:100F9000000A00180040015030B5104B00204FF6F9
:100FA000FF725988914201D2491C59804FF0007458
:100FB00003EB40018A7915060AD502F07F057F2DE3
:100FC00004D204EBF2124FEA726200E000228A714E
:100FD000401C80B22F28EBD330BD00002203001844
:100FE000084945F2AA5200200A8001224A8002469E
:100FF000888001EB4003401C80B2DA802F28F8D3B0
:101000007047000022030018084A00211088538806
:1010100018449388184480B202EB4103491CDB88D2
:1010200089B2184480B22F29F6D3704722030018E2
:1010300070B5234C234DA1782868F9B1224A118854
:1010400041291BD9B1F5877F18D2B2F90E1011F1E1
:10105000230F13DD962911DA1C49498871B91C49FF
:1010600091F90620521C0CD082030AD4194A127836
:101070003AB9897829B91849C97811B9617800292C
:101080001CD0164E400206D5A188304603F0C8FC9D
:101090002868400212D400206070A070FFF7B4FFEF
:1010A0000F49A1F86400A288304603F0D7FCA2885B
:1010B000BDE870400A490B4803F0D0BC70BD000089
:1010C000900000188C0000186802001894020018A4
:1010D00050060018B8000018BA00001800B000113F
:1010E0002203001800B8001108B500212F2806D2ED
:1010F000054901EB4000C088ADF8000000E0009118
:10110000BDF8000008BD00002203001810B50F4C08
:101110000F490D48C4E902016622A2800D4903F07F
:101120003DFA00F0D7F938B9A2880A49E06803F01F
:1011300035FA00F0CFF920B1FFF72EFF0120A070A3
:1011400010BDFFF74DFFF9E700B000119000001847
:1011500000B80011220300182DE9F041B34AB44D44
:10116000002492F906102888002902DD40F00100D1
:1011700001E020F0010028806888C90F61F30000B9
:101180006880AB4892F907108088002902DD40F0A2
:10119000010001E020F00100A880E888C90FA54EF9
:1011A00061F30000E880F0882B8960F30003F08889
:1011B0006989400860F30001F08896F805C0870847
:1011C000A88967F30000EF896CF30007EF81177AB5
:1011D00067F388032B81537A63F388016981917ADD
:1011E00061F38800A8819448298A006860F30001AF
:1011F0002982698A420862F300016982A98A820809
:1012000062F30001A982E98AC20862F30001E9825F
:10121000298B020962F300012983698B420962F379
:1012200000016983A98B820962F30001A983E98B1C
:10123000C20962F30001E983298C420A62F30001CA
:101240002984698C820A62F300016984A98CC20A2C
:1012500062F30001A984E98C420B62F30001E98486
:1012600076490968B1F57A7F18D9698D020C62F365
:1012700000016985A98D420C62F30001A985E98D01
:10128000820C62F30001E985298EC20C62F3000131
:101290002986698E020D62F30001698635F8341FD4
:1012A000820D62F3000129806988C20D62F300019A
:1012B0006980010EA88861F30000A8806048A98BAE
:1012C000007860F30001A983E98B420862F3000112
:1012D000E983298C820862F300012984698CC208A1
:1012E00062F300016984A98C020962F30001A984F8
:1012F000E98C420962F30001E9848109288D61F3D8
:1013000000002885B068E98860F30001E980B068D2
:101310004108288961F300002881B0688108688944
:1013200061F300006881B068C108A88961F300001A
:10133000A881B0684109E88961F30000E881B068DC
:101340000109288A61F300002882B0688109688A4F
:1013500061F300006882B068C109A88A61F30000E7
:10136000A882B068010AE88A61F30000E882B068E8
:10137000410A288B61F300002883B068810A35F8A0
:101380001A0F61F3000025F84E0915F8140000F05B
:101390000101204600F06EF8042C37D0052C35D022
:1013A000062C33D015F81400C0F3400200F0010100
:1013B000204600F07BF835F81400014660F3410147
:1013C00025F81410B06820F00100B060B06820F07B
:1013D0000200B060B06820F00400B060B06820F097
:1013E0000800B060641CE4B22F2CCED3154D2878D1
:1013F000002809D00E4E00205E36B4882870FFF712
:10140000EFFDB4800120A870BDE8F08135F814002C
:10141000420AC0F38601204600F048F835F814006F
:10142000810861F34F2025F81400C4E75006001826
:10143000C4020018940200188C000018B4000018B0
:10144000680000189000001870B54FF61175284616
:1014500004F0FCF8002809D0054C01202070284633
:1014600004F0DEF8FFF7E4FD0020207070BD0000FE
:10147000B800001810B5002913D02F2811D209493F
:10148000094B01EB40014FF001028879040602D4B8
:1014900040F0800001E0440603D020F07F00887116
:1014A0009A7010BD220300189000001891420CD9C8
:1014B0002F280AD2054901EB4000C179FF2904D247
:1014C000491CC1710249012088707047220300182D
:1014D0009000001810B5FFF797FD07490A88A2F59C
:1014E000AA43AA3B05D1B1F86410814201D1012081
:1014F00010BD002010BD000022030018F0B55C886C
:101500008C4203D1B3F90040844201D0012500E0B0
:1015100000251E7A02244FF0010C03273EB15E7AAB
:10152000012E0BD0022E17D021B1C5B119E083F8DE
:1015300008C009B95C720DE05F7207E00029F9D0BC
:10154000002DF9D1DC888C4204D2641CDC809C889C
:10155000148006E0108004E00029FBD0ECE783F85B
:1015600009C05980188010889880F0BD00220A7246
:101570004A72CA800280704710B54FF0E02291692C
:101580004FF47A7407E093698B42FCD393698B42E2
:10159000FCD8A0F57A70A042F5D200EB8000C10023
:1015A0009069884206D3431A9169994201D98142D0
:1015B000FAD310BD5369091A5B1A91698142FCD3B1
:1015C00090699842FCD810BD10B50022C2F1040306
:1015D000C2F1050431F81330521C21F81430052AE9
:1015E000F4DB088010BD2DE9FE438946DDE90C548B
:1015F000DDE90A680100207B174648D020B9204663
:1016000000F055F801202073ABB3002034F810101F
:1016100025F81010401C0628F8DB29464846FFF73D
:10162000D3FF00204FF400536A4635F8101099425A
:1016300001D2012100E000211154401C0628F4DBF6
:101640009DF80010002021B11118497809B101213D
:1016500000E00021401C0528F5DB88F8001059B196
:1016600002AA14212846FFF7A1FBBDF808000428B0
:1016700002D32888308000E03780002035F8101031
:1016800024F81010401C0628F8DBBDE8FE83002873
:10169000FBD000202073F8E700224FF4FA6321F812
:1016A0001230521C062AFADB00210180704700210B
:1016B0004FF4FA6220F81120491C0629FADB704722
:1016C0002DE9F0471D46DDE909640B469046814649
:1016D0003146184604F10A02089FFFF709FA22462C
:1016E0003946484603F000FF387820B9307810B901
:1016F0005FEA080000D001202870BDE8F08770B5CF
:1017000014460A46054604F10A011046FFF7FEF9A1
:1017100021462846BDE8704003F0F3BE10B5124CD8
:1017200094F8C80000EB400004EB800050F8CC1F98
:10173000028951434268408902FB001040F2E731C0
:1017400090FBF1F04FF461514143C913C4F8E41028
:1017500001B20648C43401F095FF4FF4615148438B
:10176000C013206010BD0000AC030018D8000018A2
:1017700070B5464DD5F8E410D5F8C4000A1A00D566
:10178000421A434C12B2052AE28001DD218100E0B9
:1017900020814048404A0A23B0F90000A2F1160116
:1017A000FFF7AAFB811EA5F8E80009B2A5F8EA1028
:1017B000B4F9086000224FF6FF73B04227DA61885F
:1017C000994201D2491C6180301A01B26088022816
:1017D0001BD96280B5F90400237800280BDD01FBDA
:1017E000130000B24FF44871A5F8860088420CDA65
:1017F000A5F8861009E001FB030000B22749A5F80F
:101800008800884201DDA5F88810A28070BDD5F857
:10181000C4008842FADA608808B1401E6080B5F9D9
:101820000000002806DDB5F9021001F13201814205
:1018300006DBEAE7E9DAB5F9021032308142E4DD8D
:10184000A088984201D2401CA08080B26428DDD9D3
:10185000A280B5F9040000280CDDB5F8860041F23D
:1018600070710A3000B2A5F886008842CEDDA5F876
:10187000861070BDB5F888000949193800B2A5F87E
:1018800088008842F5DAA5F8881070BDAC0300180E
:10189000C80000186802001866670011E0FCFFFF2E
:1018A00090E8FFFF064810B5018841F04001018033
:1018B000FFF736F800F0E0FE02490120087110BD84
:1018C00008000140E00000182DE9F041704C714D16
:1018D000B4F90A10B5F90000002902DD002803DB85
:1018E00006E005DA002803DD00F0C6FD00F070FD1B
:1018F000674E2888183660813079DFF89881664C09
:1019000008F13C08022822D003287AD000F0B4FD68
:101910004FF04020806D80B2A4F84600616EB1FBAC
:10192000F0F124F8481F216A414321F30F3121834C
:10193000A18C484320F38F20E88668874042A88620
:101940002887288BA882688BE882BDE8F081FFF7A2
:10195000E5FEA08ED8B15149B1F84C200021012AF2
:101960004CD0A186A4F84C10B5F9A400B5F8AE107F
:101970004843B5F8B010C1F10F010841E18E90FB6A
:10198000F1F001B2404601F07DFE6880C0E7424AB6
:10199000B5F9000050320327216C002814DDB4F99A
:1019A0001E0001F07FFEA4F84A00B4F93C10414348
:1019B00021F3CF31A4F84C10B4F91E108842D3D1D2
:1019C0003771B5F9040015E0E08B404200B201F038
:1019D00069FEA4F84A00B4F93C10414321F3CF3129
:1019E000A4F84C10B4F91E10C842BDD13771B5F936
:1019F000040040428003E860B6E702E0401EA08693
:101A0000B0E7FFF78BFEFFF7B3FEB5F886006883FB
:101A1000B5F888002883B5F9A400B5F8AE1048439E
:101A2000B5F8B010C1F10F010841E18E90FBF1F063
:101A300001B2404601F026FE68802A881549101A36
:101A400003B251F80C0FB1F9062003FB0200B1F903
:101A50000820D203904204DBB1F90A20D20390425D
:101A600000DD10460860B1F904205A4302F3180261
:101A700000EB8210B1F90C20C013904201DA10463D
:101A800004E0B1F90E10884200DD0846A8803FE767
:101A9000C8000018AC030018980400187C670011F7
:101AA00070B52C482C4BA0F134040189C1F30B0212
:101AB0005A808188C1F30B0CA3F804C002EB0C011F
:101AC000C160218E501AA1EB0C0100B2D88009B27E
:101AD000ACEB02021981A4F5B27C5A819CF8C85083
:101AE0006D1C05F001058CF8C85005EB45050CEBA5
:101AF000850C0CF1CC0C0028ACBF05464542CCF857
:101B000000500029ACBF0D464D42CCF804505B6933
:101B10001D8AACF808505B8AACF80A30E38C062BBF
:101B200013D2DFE803F00305070A0D0F608105E01B
:101B3000628100E06181A08109E06181A28106E00B
:101B4000628100E06081A18101E000F095FCA08845
:101B5000E08470BD44050018E80000182DE9F05F2E
:101B6000DFF824B40024BBF81200ABF81400BBF873
:101B70001000ABF81200FFF793FFABF1EC01204629
:101B8000D1F86E2113B203F38F0C121403EB42024F
:101B900044F6E7135A436CF30F0022F34F3262F31B
:101BA0001F40C1F8EC00BBF81020DFF8E4C3930934
:101BB000F64A126832F913203CF913300FFA80FC10
:101BC0000CFB02F5EE13051405FB03F06A4306EB6C
:101BD000E030D2130CFB03F300F30F06A2EBE33269
:101BE000204666F30F0002F30F0262F31F40E94B39
:101BF000C1F8F000BBF90810B3F90000BBF81A20D7
:101C00000844BBF90010BBF924C05143A0EBE130FC
:101C1000DBF8282000F30F010CFB0121BBF926C0E3
:101C2000D2130CFB121101F31E01CBF8281041F363
:101C3000CF30BBF90010BBF81C2003F1240C51433A
:101C4000A0EBE13000F30F00ACF80000B3F90200A4
:101C5000BBF90A10BBF81A200844BBF90210BBF903
:101C60002C505143A0EBE130DBF8302000F30F01A2
:101C700005FB0121BBF92E50D21305FB121101F314
:101C80001E01CBF8301041F3CF30BBF90210BBF886
:101C90001C20A3F120065143A0EBE13000F30F001C
:101CA000ACF80200716CA3F1140808B2051EB8BFAD
:101CB00068420A14174648BF7A42DFF8DC92DFF820
:101CC000DCA282427EDC9102B1FBF0F239F8121004
:101CD0003AF812205043C00BA8F80000002D72DD26
:101CE000002FB8BFC1F5803130880844ABF816002A
:101CF000B0894FF4FA414843C00B00F31002A848E2
:101D000015B2B0F99C70D0F8A02007FB0525B0F9FA
:101D10009E70D21307FB125202F31E0242F3CF3120
:101D2000C0F8A0209F4DBCF900206F428A42C8BF76
:101D30001D8005DCC1F100089045CCBF1F801C80D0
:101D4000BCF902208A42C8BF5D8004DC494291424E
:101D5000CCBF5F805C8090F88410491C01F01F01AB
:101D6000A0F88410B0F8AC20202A79D000EB410113
:101D7000BBF81620A1F8442090F8841090F8AC30FD
:101D8000C91A01F01F0100EB4101B1F84410511ACA
:101D9000A0F8A41090F8B22009B241FA02F2A0F81B
:101DA000A620BBF81610B0F8A830C91A09B2F18104
:101DB000B0F8AAC00CFB01F102EBE13101F30F0115
:101DC000318201E030E028E01944774A89B2A0F876
:101DD000A8101279032A4DD0BBF85810BBF84C203C
:101DE0001144ABF85810ABF810108288BBF80430DF
:101DF00000F11C01D21A0FFA82FCB0F92230C2693C
:101E00000CFB0322B0F92430DB039A427EDBB1F9EC
:101E10000A30DB039A427ADDCAE0002FACBFC1F57D
:101E2000004101F500415FE78002B0FBF2F139F8B3
:101E300011003AF811105143C90BA8F80010002DF9
:101E400007DB002FD4BF00F54041C0F580414BE7D0
:101E500006E0002FCCBF00F58041C0F5404143E7CC
:101E600000EB4103BBF81610B3F84420A3F844106C
:101E7000891A8DE78446ABF81010BCF80610BBF841
:101E80000420891A0BB250F81C1FB0F9062003FB7E
:101E90000211B0F90820D203914204DBB0F90A2004
:101EA000D203914200DD11460160B0F904205A438B
:101EB00002F3180201EB8211CA13B0F90C108A4226
:101EC000AABFB0F90E000A468242C8BF0246ABF86C
:101ED0000C20BCF80400BBF806100CF12C03401ACF
:101EE00002B2BCF93210DCF82C0002FB0100BCF994
:101EF0003410C903884204DBB3F90A10C9038842CD
:101F000000DD08461860B3F9041001E050E050E02D
:101F1000514301F3180100EB8110B3F90C10C01309
:101F2000884203DBB3F90E10884200DD0846ABF8A7
:101F30000E0000BFBBF90C10BBF848001B4D41431D
:101F400021F38F37BBF90E10484320F38F3807FB7E
:101F500007F008FB0800E96981427DD23846FEF7A8
:101F6000BBF8698A814265DA002FACBF89B2494269
:101F7000204661F30F00A98AB8F1000FBCBF4942A7
:101F800061F31F407CDB73E09804001830010018F7
:101F9000F067001108010018F0710011F2790011CA
:101FA000AC03001870FEFFFFE000001810050018D9
:101FB0001A460A60B1F9043003FB0CF303F318036B
:101FC00002EB8312B1F90C30D2139A42AABFB1F9D5
:101FD0000E101A468A42C8BF0A46ABF80C20BBF85E
:101FE000061049420BB250F82C1FB0F9062003FB33
:101FF0000212B0F90810C9038A4204DBB0F90A10D2
:10200000C9038A4200DD0A460260B0F90410594350
:1020100001F3180102EB8111B0F90C20C9139142B0
:10202000AABFB0F90E0011468142C8BF0146ABF805
:102030000E107FE73846FEF74FF8A96980B2484393
:10204000C0F3CF30B0F5807F88BF4FF480708149F6
:1020500031F81000298A01E00DE011E04843C0F397
:102060000F21204667F30F00B8F1000FB8BF4942B7
:1020700061F31F4004E0204667F30F0068F31F4040
:1020800002B2171EB8BF7A4201148C4648BFCCF189
:102090000001914277DC8802B0FBF2F139F81100BF
:1020A0003AF811105143C1F3CF33002F62DDBCF178
:1020B000000FB8BFC0F5803080B2298A994238BF7E
:1020C0000B46298D7F2988BF6B800CD8624B6C80B2
:1020D000EA6ADB68491C1A4489B2EA6229858029C8
:1020E00004BFE9892986BBF81010DFF870C10844E5
:1020F00080B228806B88BBF860108209594321F3B5
:102100000F3189B2ABF86E10DCF800C0544D3CF9C9
:1021100012C035F9122001FB0CFC2CF3CF3C5143CB
:102120006CF30F0421F3CF3161F31F444D4901F5E6
:10213000B272C1F8F440D3B300EB40004000030C8E
:10214000C0F30721DFF820C19380C1F1FF0450885C
:102150003CF814406043000CD08054883CF81110C7
:102160006143090C1181052B6ED2DFE803F037398A
:1021700061646A00BCF1000FACBFC0F5004000F51F
:10218000004099E7FFE79002B0FBF1F239F8120046
:102190003AF812205143C1F3CF33002F08DBBCF1D2
:1021A000000FD4BF00F54040C0F5804084E707E051
:1021B000BCF1000FCCBF00F58040C0F540407BE78C
:1021C000F06940F2F3110180C1804180018181807A
:1021D000418140F2E7318181C18108E0122204E0AF
:1021E000034608464FF4817231E000F03FF8EFF308
:1021F000108010F0010F72B6F0690388B1690B808E
:1022000043884B8083888B80C388CB8003890B8174
:1022100043894B8183898B81C389CB81038A0B825C
:10222000408A488218BFBDE8F09F62B6BDE8F09FC3
:102230004FF49072D9E70B4601464FF404721846EA
:10224000D3E740F20122D0E703460846212219468F
:10225000CBE7000006820011440500183001001889
:10226000F0670011AC030018088400112DE9F04F4D
:10227000554FC2F3012C554B57F82C4007F10C0574
:10228000DC6255F82CC0C2F30118C3F830C057F80F
:1022900028605E6355F8288002F00309C3F838808F
:1022A00057F8292040F2F317DA633F1A55F82950FE
:1022B0007F1A5F624FF000091D641E2FB8BFC3F87C
:1022C00024909F8C2780471A07F2F31B40F2C937EE
:1022D0004FF47A7AC3F824B0BBF11E0FB8BFC3F82D
:1022E000249003DB5F45B8BFC3F824A0B3F824B043
:1022F000A6F800B000EB010B0BF2F31BC3F824B0FF
:10230000BB45C8BFC3F824A0B3F824B0A2F800B0FE
:10231000B4F800B0ACF800B0B6F800B0A8F800B05F
:10232000B2F800B0A5F800B0B6F800B0B4F800E01C
:10233000ABEB0E0BC3F824B0BBF1C80F15DACBF131
:10234000C80BDE44C3E909BE7745ACBFA4F800E082
:10235000A4F800A0BCF80040A4EB0B049C621E2C67
:10236000B4BFACF80090ACF8004014883688A41BC9
:102370005C62C82C12DAC4F1C8065E622C88344450
:102380009C62A742ACBF2C80A5F800A01488A41BB7
:102390009C621E2CB4BFA2F800901480BCF80020F0
:1023A000B8F800C0624440F2CE7CACEB5204DA696B
:1023B00094812B88B8F800402344ACEB5303D381BD
:1023C00010825182BDE8F08FD8670011E800001834
:1023D0007CB5254C2079012845D100F039FC2349F2
:1023E00040F2F3100880091D0880091D08801F4B6A
:1023F000103B402018801D4944317A2008801B4D35
:1024000040F2E73014352988184A0C328142108096
:1024100001D8401C28804FF480401880144801786F
:1024200021F004010170FE2101750C210174017875
:1024300041F00401017002251D800C480C38018810
:1024400021F03F010180018841F0800101800948AD
:10245000FEF73EFC03200090034602460146019031
:10246000FEF76AFC25717CBDE000001814C0004036
:102470000050004800FC1F1F7CB50E4D2879032832
:1024800003D0022801D0042812D10024009423464E
:102490002246214620460194FEF74EFC06490120C3
:1024A0000880287105484480C0F8C440C0F8E44062
:1024B0007CBD0000E000001804C00040AC03001820
:1024C00070B51B4D1B4CA88808B1A0842CE019489E
:1024D0002288A2F14701B0F90E0077290DD210F140
:1024E000280F0ADD962808DA00F02CF8E0B9A08C55
:1024F0001149A8800120087016E0104B40F27C6161
:10250000A1841978463A792A02D341F0200101E0EA
:1025100021F0200128301970BF2802D341F040007B
:1025200001E021F0400018700549A08CC88170BD01
:1025300022030018680200189100001868000018B3
:10254000100500182DE9F047DFF820910020024621
:10255000D9F800500146044625F48075C9F80050AA
:10256000DFF80C81414D40F27C6A98F80060DFF89A
:1025700004C1243506E0491C89B2C82901D90120CB
:1025800000E000202B6813F0010F02D00028F2D0E9
:1025900000E020B1ACF824A046F002015BE04FF06F
:1025A0004027386820F0700040F0100038600023A9
:1025B000386840F0040038600020014604E0491CFF
:1025C00089B2C82900D901203D6805F00805ED0849
:1025D00001D018B10AE00028F1D007E0F96E521CD2
:1025E000C1F30B01ACF82410D2B20C445B1CDBB27B
:1025F000642BDDD3082A29D3B4FBF2F189B21D4A3A
:10260000ACF82410A1F2046392F82B20F12B02D332
:1026100042F0010201E022F001028CF82B20D207E7
:102620001BD040F2F460814204D9ACF8240046F09B
:10263000040007E040F20460814205D2ACF82400B7
:1026400046F0080088F80000012006E00120ACF800
:1026500024A046F0100188F80010D9F8002042F4B8
:102660008072C9F80020BDE8F087000050400040AB
:1026700068000018680200182DE9F04FFF4C002098
:102680008DB0E0808346FE4842F2321141F62D6261
:102690000182428240F6D2528282FA4AC2614FF4EB
:1026A0000002B2FBF1F1F94E8161F74D306820F084
:1026B00006003060F64F3868019078680199FDF7A0
:1026C00033FD29460090FDF72FFDDFF8C883404514
:1026D00003DA306820F006003060DFF8BCA3009811
:1026E0005146FDF721FD47464FF00209B84206DA90
:1026F0003068554620F0060040F002003060DFF8F8
:102700009C8300984146FDF70FFD4FF0040AB84244
:1027100006DA3068454620F0060040F004003060DC
:10272000DFF87C8300984146FDF7FEFCB84204DAEE
:102730003068454640F006003060D54E2946019885
:10274000FDF7F2FC0146D048FDF720FD0290F0684D
:10275000FDF7C8FE05460F460298FDF7C3FECDE91A
:1027600000100F22FDF73DFE88462A463B460390A7
:10277000FDF756FD0022CB4BFDF7C4FDFDF7C5FE6E
:10278000C94DA84200DD2846FDF760FEC74F78839B
:10279000BF480069FDF7A6FE02460B464146039876
:1027A000FDF73EFD4FF02042C14BFDF7ABFDFDF7BD
:1027B000ACFEA84200DD2846FDF748FEBB49BD4EF1
:1027C000BD4F88830F22BD48BD49FDF70AFEF217B1
:1027D000FDF707FEFDF76DFEB44906224866304658
:1027E0003946FDF7FEFD074688460F225007B549DA
:1027F000FDF7F7FD06460F220391FDF7F2FD434674
:102800003A46FDF77FFDFDF754FEA849052288668C
:10281000AD48AE49FDF7E5FD02460B46304603994B
:10282000FDF770FDFDF745FEA049994FA1F86C003A
:10283000788F0690C886F86B0299FDF7A7FC0F21E8
:10284000FDF7E2FC4FF07E56A84202DD28468021CB
:1028500004E0B04203DA30464BF08001E180FDF73E
:10286000DCFDDFF848B2ABF83800386CFDF73AFE13
:102870004FF05532964BFDF7D3FCFDF746FEA846C8
:10288000404501DD404602E0B04204DA3046E188CE
:1028900041F48071E180FDF7D9FDABF83A005D4667
:1028A000786CFDF7BAFD00B2E8830790B86CFDF7CD
:1028B00019FE1022FDF795FD4FF05532844BFDF7C0
:1028C00021FDFDF722FE4FF09E41884201DD0846C2
:1028D00002E0B04204DA3046E18841F40071E18060
:1028E000FDF79BFD286442F6F110A8874FF4EB70CA
:1028F000A884A8853220E884E885654D754FA88AAC
:102900003882E88A7882DDE900B10291686AFDF7D1
:10291000E9FD0022704BFDF783FC5B46029AFDF750
:10292000F1FCCDE90201FDF7A5FD3883DDE90001E9
:1029300004908B46286AFDF7D5FD0022664BFDF713
:102940006FFC5A46049BFDF7DDFCCDE90401FDF761
:1029500091FD7883DDE900B10F46A869FDF7C2FD5E
:1029600000225D4BFDF75CFC5B463A46FDF7CAFC76
:10297000FDF7CBFD4546A84204DDE188404641F025
:102980001001E180FDF749FD524900B2DFF800B1C6
:10299000A1F886000B90DDE900810F46DBF81C00F2
:1029A000FDF7A0FD00224C4BFDF73AFC43463A46AA
:1029B000FDF7A8FCFDF7A9FD484FB84204D9E1880E
:1029C000384641F01001E180FDF727FD414900B292
:1029D000A1F888000990DDE90401FDF796FDA846FD
:1029E000404504DDE188404641F01001E180FDF7FB
:1029F00014FD384D00B2A5F88A000C90DDE9020103
:102A0000FDF783FDB84204D9E188384641F0100152
:102A1000E180FDF702FD00B225F88C0F0A905F46B9
:102A2000DBF82800FDF7F9FC01B269808B46F86AF3
:102A3000FDF7F3FC02B2AA8000920192386DFDF717
:102A4000ECFC00B2E880019A8C3D934503DAE18802
:102A500041F02001E180834503DAE18841F0200163
:102A6000E18000990144002903DDE18841F0200163
:102A7000E1800799814236DAE08831E0E000001811
:102A800010050018C4ED4D04000020410C800148E1
:102A90007C6700110000A03F0000A0410000204220
:102AA0000000704200002A4000FEFF469804001813
:102AB0009999B93F489000A4945B0741899645F5E0
:102AC00071838840C67D6E40662321DB4384364097
:102AD00055D57440AC030018C0FFDF4000FEFFC6B0
:102AE00040F02000E080DDE90B01884203DAE08855
:102AF00040F00800E080DDE90901884203DDE0885C
:102B000040F00800E080786DB04202DC4A4988421B
:102B100003DCE08840F00400E0804FF4FA70288481
:102B20004FF4C872454B6A84AB845942E9842B85C3
:102B30006985288642496A86A9864842E8862987A7
:102B40006887386BFDF7CEFC02460B463D483E4990
:102B5000FDF7D8FB0F22FDF744FCFDF7D6FC4045FE
:102B600001DD404602E0B04204DA3046E18841F03F
:102B70004001E1800A21A5F8B810A5F8BA107C350B
:102B8000FDF74BFC25F8400C25F83E0C4FF47A700D
:102B900028846884288368833220E88541F66A00A7
:102BA00068867C3D0698FDF733FCB96DFDF7BCFAED
:102BB000FDF798FC0222FDF714FC02460B460020AC
:102BC0002249FDF79FFBFDF7A0FCB0F1844F0ADB23
:102BD0000520A5F8B200202025F8AC0F0020A88021
:102BE0000DB0BDE8F08F0121B0F1834F06DBA5F8F1
:102BF000B2A0102025F8AC0FA980F1E70322B0F1B4
:102C0000824F07DBA5F8B220082025F8AC0FA5F805
:102C10000490E5E7B0F1814F06DBA5F8B290A5F886
:102C2000ACA0A5F8B020DBE7A5F8B210A5F8AC90F1
:102C3000A5F8B0A0D4E700000AD7233C9091FFFF8D
:102C40003CBFFFFFFA7E6ABC7493683F006A18417C
:102C500010B5254800241422048044808480C48058
:102C60000481448184810485C462C18901861F482E
:102C700040F2F3110180C180418001818180418156
:102C800040F2E7318181C18101461430FDF728FA15
:102C90001748184A048044808480C4800481448199
:102CA0008481C481048244828482C48204838462D5
:102CB00004630465418F818641F25551A0F8581094
:102CC000002102EB4103491C89B2A3F844401F29AB
:102CD000F7D35480008F9080D480D461D462146480
:102CE000C2F8984010BD00001005001858050018E3
:102CF00098040018AC0300180148007870470000E1
:102D0000A0000018082802D20249085C7047FF2082
:102D100070470000A9000018082802D2014A0021CB
:102D200011547047A900001870B501F06BFE2F4CCC
:102D3000012100256174257462780AB3012A30D01C
:102D4000032A3CD0052A1AD1E27804F10C01505430
:102D5000E078401CC0B2E070022810D3A089E1895D
:102D600040BA81423DD12249207808702048A2789B
:102D7000211D0930FEF7B6F865706574257470BDC5
:102D800005280BD004DC012808D0032804D105E075
:102D9000102803D0202801D0002023E0207061708B
:102DA00070BDC0432178C0B2814206D1032060705B
:102DB0000820A070E570E58170BD012012E00B498C
:102DC000E278091D5054E1890844E081E078401C14
:102DD000C0B2E070A1788842EED305206070E57043
:102DE00070BD0220BDE8704000F050B888030018A4
:102DF000A000001810B5094C07210822617020704E
:102E00000020E070E081A2700549201DFEF76AF8FD
:102E10002078BDE8104001F0FBBD00009A030018C7
:102E2000A100001810B5184C21466078C989022805
:102E30000CD0042824D006281DD0072815D12078CE
:102E4000C043C0B201F0E4FD02201AE0E078A278AD
:102E500090420BD20C4A121D835C1944E181805CC4
:102E600001F0D6FDE078401CE07010BD080A01F0CA
:102E7000CFFD062005E0C8B201F0CAFD042000E045
:102E80000920607010BD00009A030018024800215C
:102E9000417401744170704788030018012202EBED
:102EA000400010B5C0B2082807D201F50041034A1E
:102EB0000B0A141804F8013C115410BDA1000018AD
:102EC000012202EB400010B5C0B2082807D201F57C
:102ED0000041034A0B0A141804F8013C115410BDB8
:102EE000A1000018082801D2014A115470470000BF
:102EF000A100001870B51A48C17B00292FD1012408
:102F0000C473FFF71FFB174A002892F82B0002D06A
:102F100040F0010001E020F00100134D134B82F856
:102F20002B00C10702D00020A8800DE0918CA1F5F4
:102F3000C866792E02D340F0010001E020F00100C4
:102F400082F82B00C00704D0187840F001001870F8
:102F500002E00748A98004700649908CC88170BDC2
:102F600022000018680200182203001868000018E8
:102F700091000018100500182DE9F84F6F48002245
:102F800000906F4B0121104600F0E2F881466B483B
:102F90006B4C0E38283C0090E07B08B1012100E02A
:102FA0000021674B00229B1E104600F0D1F8064618
:102FB00062481C38009094F91000002801DD0121BE
:102FC00000E000215E4B00221B1F104600F0C0F8FD
:102FD0005C49DFF868C15C4B8A7BACF16C0CB2F1E8
:102FE000000A02D09CF81A2012B91A7A0F2A01D3CB
:102FF000012700E000270A7C12B19CF81B5015B98C
:103000005D7A0F2D01D3012500E000258B46C97B99
:1030100021B19CF81C80B8F1000F02D19B7A0F2BD4
:1030200001D3012300E0002394F81280B8F1000FCF
:1030300001D000201FE00EB101201CE008B10220E9
:1030400019E0608900B10120BAF1000F03D017B177
:1030500008B103200FE01AB115B108B104200AE04D
:1030600019B113B108B1052005E09BF8140008B1AF
:10307000062000E00720B9F1000F1AD0334901EB18
:10308000400188898A8B9CF818104FF000094FF096
:10309000020A012681B19CF8191001291CD0BCF844
:1030A0001010012939D888B38CF8196084F816906B
:1030B00030E000200122E6E78CF81860ACF8102020
:1030C000ACF80E0020B18CF8196084F816902DE051
:1030D0008CF819A0A67529E0BCF80E1001290AD8B1
:1030E000BCF81080B8F1000F05D08CF819A0A675B7
:1030F000ACF80E901AE084F8169041B14A1E481EB2
:103100008A4200D90020ACF80E000FE005E0BCF8C0
:10311000101059B9ACF81020F5E7A67531B14A1E68
:10312000481E8A4200D90020ACF810008CF81A70B2
:103130008CF81B508CF81C30BDE8F88F1606001870
:10314000A805001838060018500600180C86001153
:10315000F0B50E46059C1F461546A178B14201D236
:10316000054603E0E078B04200D825883A46294673
:103170003046231DFEF7C2F9388800B10120A67041
:10318000E6702580F0BD091DFEF7F0B900B50E49C7
:103190000E48FFF7F8FF0C490C480E39801EFFF768
:1031A000F2FF094909481C39001FFFF7ECFF0648E8
:1031B00000216C384FF6FF7201764176C28102829F
:1031C00002482838817500BD16060018A8050018A9
:1031D0002DE9F0430246C51C0C7902204FF4803CD7
:1031E0004FF6FF7641F28B374FF4E179012344B17A
:1031F0004C79012C11D0B1F80280B8F10A0F09D234
:103200001EE00B712C46654500D33446BA4201D806
:103210004C4505DA4B71002010E00C880A2C02D3D3
:10322000487101201AE0002041F2C615A2F5E172B2
:10323000AA4203D8641C0C80BDE8F0830B80FBE736
:1032400001202C46654500D33446BA4201D84C458E
:1032500004DA08F10108A1F80280EDE74B80EBE702
:1032600000220A714A710A804A8002707047002267
:103270000A714A710A804A80027070470D48002125
:1032800001814FF624220284C21482814FF6FF721C
:10329000828401824FF6184303858182911E8185C5
:1032A0008114018302864FF6F271818348F65E41F4
:1032B000818070470000014070B54FF0502494F8B1
:1032C0005C010C4DC00707D094F86001C00703D023
:1032D00000F012F80120287094F85C01400707D52F
:1032E00094F86001400703D500F018F80420287016
:1032F00070BD0000645100500648018C4FF6242236
:103300001144018404480079012801D0FEF726BC4D
:103310007047000000000140E0000018704770474F
:1033200010B54FF05020002100F8191BC172FF2387
:10333000C373C175C022C276C17780F823100522FD
:1033400080F84321164A4FF0FF145462154C546123
:103350001162916280F8BB109C02D465134C124A32
:103360002260241D124A2260241D124A2260241D5C
:103370004FF0F03222604FF0E02440F62142C4F8D2
:1033800000218022C27080F86B3180F86F3180F8A4
:103390002B1180F82F1108499005086010BD00001E
:1033A00000600050C7FF3F3F10F0F00000E400E075
:1033B000F000F0F0F0F030F020ED00E00848016897
:1033C00021F006010160016801F4E021090C0129E6
:1033D000F9D1062101604FF0502080F89410704719
:1033E00000E0014810B502F095FA0A2807D0002045
:1033F000044CE070002002F047F9208010BD01204D
:10340000F6E70000BA0000182DE9F0417A4B0020E1
:103410000146DA88794ED20703D0327A0F2A00D3D8
:103420000120DA88520703D5B27A0F2A00D301218E
:10343000734CE28822F44372E28018B122F00C024D
:10344000121DE28061B19968890691B203D521F01D
:103450000C01091D03E021F4407101F58071E18048
:1034600068491A6A8A42E18821F0300100D310319C
:10347000E18096F9065089B221F0C00105B14031D2
:10348000E180E28896F9071022F0030201B1521C94
:10349000E2805D4A927B012A00D1A9B1E18821F442
:1034A0004051E180B3F900104FF47A72514344F671
:1034B000B07791FBF7F1C9B22170B3F90220002671
:1034C000002A07DA667012E0E18821F4405101F524
:1034D0008051E6E741F2EC3C624501DDFA2205E06D
:1034E0004FF47A7C02FB0CF292FBF7F26270DFF889
:1034F0001CC1FF27BCF80020FF2A01D9A77000E0FB
:10350000A270BCF90E2012F1320F01DAE67005E06C
:10351000CD2A01DDE77001E03232E270DA6A002A7A
:1035200001DA267107E0FF2A01DD277103E002EBD3
:10353000D2725208227178B975B9E08810F0300F54
:103540000AD1820708D110F00C0F05D110F4407F8A
:1035500002D110F4405F05D0E08820F4406000F50F
:10356000806001E020F44060E080022002F0B0F8CA
:103570006178032002F0ACF8A178042002F0A8F8EA
:10358000E178052002F0A4F82179062002F0A0F8E5
:103590000321072002F09CF8E088C0F301310920E4
:1035A00002F096F8A07900F003010A2002F090F8EA
:1035B000A079C0F381010B2002F08AF8A079C0F352
:1035C00001110C2002F084F8A079C0F381110D20C4
:1035D00002F07EF8E088C0F301210E2002F078F8B6
:1035E00000210F2002F074F8E088BDE8F041C0F33C
:1035F0008121112002F06CB89402001850060018C6
:10360000BE000018C0D40100800500186802001830
:103610000249212081F8340070470000004000502A
:1036200013484FF47A71144A018112490988418183
:103630000021818141718171D38943801388038086
:10364000528842820D4A1268C2F3405202710C4AFB
:10365000D38803F0010383730174D388C3F3800319
:10366000C37353790375D37D4374D17570470000DC
:1036700038060018BA000018680200188C000018FC
:1036800094020018B0F90030426803FB0121B0F940
:103690000230D21303FB121101F31E01416041F30A
:1036A000CF30704710B514680304A34203DD6018DF
:1036B000984203DC03E0601A984200DA1846106072
:1036C000001410BD7047000030B51B48D0F8C4008E
:1036D000002800DA4042194A50601948017900294F
:1036E00029D118494FF4C8730988B3FBF1F19160EF
:1036F00055686FF00A04231101228D4207DA016A2E
:10370000A14202D80A31016208E003620AE0416A7C
:10371000A14202D80A31416200E043620A4B016AC9
:10372000994201D342710271416AB1F57A6F02D9AF
:1037300000214171027130BDAC0300185400001823
:103740009402001868020018C0D4010010B5FEF7FA
:10375000A9F80348002101744174017110BD0000F3
:103760009402001810B500F093FE002813D00D4A03
:103770000D49C30706D01379032B8B680CD043F097
:1037800001038B60800706D510790328886806D06E
:1037900040F00400886010BD43F00203F1E740F000
:1037A0000800F7E7E0000018940200182DE9F04740
:1037B000504FDFF8449100253879504C09F10C0640
:1037C000022801D003280BD199F80010012903D158
:1037D000658325836574A562022823D0032821D040
:1037E0007560474A397989F80010B2F9020000285B
:1037F0007DD0404201B2B6F90030706803FB010190
:10380000B6F90230C01303FB101000F31E00706005
:10381000C0136080108840422080D2F8C400E0626B
:10382000BDE8F087FFF79EFF00F062F938790328C2
:103830000CD1A06A10F10B0F01D80A3001E04FF053
:10384000FF30A06200F0CEF8FFF73EFFA0684FF017
:103850000108C0070ED1A06880070BD4A0684007FC
:1038600008D4A068000705D4A068800602D4A06828
:10387000C0061DD5A068E060FEF7FEFDA068C00789
:1038800008D1A068800705D4A068400702D4A068CA
:10389000000703D5E08840F0010002E0E08840F036
:1038A0000400E080A07D00289BD084F8178002E00F
:1038B000A07D002895D0A068002892D1A06A42F28D
:1038C000107188428DD9E088400705D5E08820F046
:1038D0000400E08084F81780E088C00781D0E08889
:1038E00020F00100E08084F817807AE7FFE7658028
:1038F00075608FE7E000001854000018940200186B
:10390000AC030018314930B40A883149002322B190
:103910008B83002828DB024627E08A8B4FF6F5745C
:10392000A24206D80A3292B28A83B2F57A6F03D2E3
:10393000EFE74FF6FF728A83CA8822F00402CA803A
:103940008A6822F020028A604B83CA8822F0010232
:10395000CA80CA8822F00202CA804B620B624A798E
:1039600002B10B714B71D4E742421A4CB4F91E40BC
:10397000A24200DA00204042174C00B258B10A7946
:103980000AB14A7902B11548154A1279012A09D0BB
:10399000208030BC704720880028FAD0238030BCBB
:1039A000FEF76ABDCD880A4A927D15B1CD880DB16A
:1039B00002B18B60CB8823B1002AEAD0C97D0029EF
:1039C000E7D1208030BCFEF703BD0000BA0000182C
:1039D0009402001898040018AC030018F6F0FFFFDA
:1039E000E00000182DE9F04F3F4DB5F90220B5F980
:1039F0000010002A01DB104600E0504200B200290E
:103A000001DB0B4600E04B421BB21C1A00D5C41A66
:103A1000D5F8C4300FFA84F9002B00DA5B42334C3E
:103A20009FB2A0F5617C41F6BD3826796579238B7C
:103A300040F6C41A4FF4FA7BC4450FD206B10DB15B
:103A400050450BDB002A02DD002907DB02E001DA2A
:103A5000002903DCD9450BD9082F09D24FF6F57C94
:103A6000634501D80A3306E04FF6FF73238308E06D
:103A70000A2B25D30A3B23839BB240F6B83C63450F
:103A800020D9A36843F01003A360B0F5FA5F03DD0B
:103A9000A36843F04003A360B0F5617F03DAA36835
:103AA00043F08003A36006B12DB1504503DAA0684E
:103AB00040F48070A060002A06DD002907DB0AE0E0
:103AC00000202083BDE8F08F05DA002903DDA0681F
:103AD00040F40070A060D945F4D9082FF2D2A06854
:103AE00040F48060A060EDE7AC0300189402001879
:103AF0000F48D0F8C400002800DA404280B20D49D7
:103B0000C82812D9488B4FF6F572904205D80A3072
:103B100080B24883322803D870474FF6FF7048833D
:103B2000886840F020008860704700204883704714
:103B3000AC030018940200182DE9FF4F81B0044631
:103B4000169ADDE90E7C92F90750DDF848A009B11C
:103B5000002007E043EA070050EA0C0001D00120F2
:103B600000E00220D071854203D0012D01D1FF2158
:103B700011720026A8B101281AD000258AF8006029
:103B80002B462F461598D17A01701498917A0170BE
:103B90001398517A017010980028119871D00680FE
:103BA000AEE08AF800600024557A937AD77AE9E784
:103BB000012D03D0168016735673968043EA0C09C4
:103BC0004FF6FF7894B3039880B343B1507A01461F
:103BD000401C491CFF2900D9FF20C5B200E0002588
:103BE000BCF1000F09D0907A43B90146401C491C32
:103BF000FF2900D9FF20C0B200E0002067B1B9F171
:103C0000000F01D0D77A07E0D17A0B46491C5B1C24
:103C1000FF2B00D9FF21CFB2034615B169462846D4
:103C200001E020B1694600F05BFF08E01EE00F2FC5
:103C300003D23220ADF8000001E0ADF80080107B27
:103C40004FF0010B02214FF4803EA0B1507B0128C0
:103C500018D0B2F804C0BDF8001000208C451CD369
:103C600041451AD082F80DB001201DE0557A937AB3
:103C7000D77A1088DEE782F80CB05173A2F804B04E
:103C800009E03CE0DDF80CC00120BCF1000F0BD0D6
:103C90005173A2F804B0002006E00CF101018C463B
:103CA000F44500D34146918092F908C0B9F1000F64
:103CB0000CD000211172E1B1BCF1010F01D056808E
:103CC00096719179814203D200210DE00121F1E743
:103CD00051888C46491C0CF1010CF44500D3414637
:103CE00089B2B1F5C87F02D8002C00DD074C5180A5
:103CF00090718AF80000BDF80000108042E704804F
:103D000055729372D77205B0BDE8F08F18FCFFFFB3
:103D10004FF0FF31C17101720021018001734173C5
:103D2000818041808171704708B108467047104614
:103D30007047000011480021017280F8281080F8B7
:103D4000301080F82C10022280F82020017180228F
:103D500080F8502080F8E01080F8DC1080F8D8104F
:103D600080F8EC1080F8E81080F8E410032180F867
:103D70006C10082180F8AC10704700000040005023
:103D80000F481C210171002180F8401006220277A3
:103D9000027680F8301080F8341000F8111B0222EF
:103DA00000F8052C80F83310C174C17380F8272007
:103DB00080F82B2000F8091CC170C176C1757047CE
:103DC000008002482DE9F047984691460E46044689
:103DD000EFF31080DDF820A000F0010572B601209D
:103DE00001F09EFB204643F6E5018847074601F0B7
:103DF000A3FBCFB90022B05CA054521CD2B2802ADF
:103E0000F9D3012001F08CFB4FEACA70410F08F092
:103E1000010041EA400009F00101084343F6DD01D9
:103E20008847074601F088FB05B962B63846BDE809
:103E3000F08700003FB5164C1649E088FFF7C8F937
:103E400004F1180105461348CA1E801D231DCDE943
:103E50000210CDE90032637C228821892846FDF7D3
:103E6000C2FB0C4B617D2E3B987C814203D8A0881D
:103E70002288904201D0012200E00022E274A08852
:103E800060801DB10020207599743FBD0120FAE7C4
:103E900080050018D8050018044890F84000002854
:103EA00003D00248002180F840107047AA0500188E
:103EB000064908B5002088742E316846FFF7D0F90E
:103EC000024903483431FDF7E7FB08BDAA05001895
:103ED00084050018044908B5002088742E3168460E
:103EE000FFF7C5F908BD0000AA05001803490448FA
:103EF0000A89C2804989018100F09CB938060018FE
:103F00008005001810B50D480D4C017BE27C407B0C
:103F1000914202D8227D904201D9012200E0002284
:103F2000084BDA7410B14FF47A7200E000225A8024
:103F300001221A75E174207510BD000050060018AA
:103F4000AA0500188005001802480021C1740175F7
:103F500070470000AA05001802480021C1740175CD
:103F600070470000AA050018F0B54E4C4E4D87B0C2
:103F7000E0884E4E288094F91620307B08B9707B7B
:103F800030B10023A3759A4206D0012A02D003E083
:103F90000123F7E7FFF780FF63B1012A01D0FFF7A4
:103FA00099FFFFF747FF94F91720287D404F38B15C
:103FB000002010E00AB1FFF7CFFFFFF7A3FFF2E701
:103FC000E87C28B9B7F91200B4F90010884201D092
:103FD000012000E00220E075002110B301283FD04D
:103FE0008DF810106088ADF818002089ADF8140025
:103FF0002C482D4B283000900C339DF81020BDF834
:104000001410BDF9180000F0C4FD6888E080788ABB
:104010002080BDF818006080BDF81400208107B032
:10402000F0BD02B1A181307B20B1ADF81410ADF824
:1040300018100BE0707B10B1ADF8141002E0962060
:10404000ADF8140041F2EC30ADF81800A08928B1A9
:1040500000218DF81010401CA081C9E70121F8E76C
:10406000012A00D06181134AB7F912000223911D81
:1040700002F000FAC0EB002000EB8000062101F006
:1040800087FA084906AE0A31039104AA05AB0096E7
:10409000CDE9013263896A884FF47F7100F028FD11
:1040A000A6E70000AA0500188005001850060018B1
:1040B000380600180C860011054A00B5907D0128CD
:1040C00001D1FFF7E9FE4FF0FF309075D07500BDCC
:1040D000AA05001810B5094C4FF0FF30A075E07527
:1040E000FFF732FFFFF7E4FE0020A081608104F1BA
:1040F0002801BDE81040024800F068BDAA0500187C
:104100008C05001870B5104DA98895F91500142973
:1041100001D3012300E000236B75984203D00128EE
:1041200001D1FFF7C9FF094C33B1FFF71DFF207D17
:10413000A074A089608170BDA888401CA880002060
:104140006081A07470BD0000AA05001880050018E9
:104150000249FF204875FFF7BDBF0000AA050018FF
:1041600070B500F0FBFB002848D025490022254D02
:10417000897A144671B16979491CC9B269710129FA
:104180000DD002294FF0010211D085F8BC4085F80E
:10419000BD4028E085F8BC4085F8BD4027E095F893
:1041A000BC10C1EB011105EB8101143115E095F84C
:1041B000BC30C3EB03115B1C05EB8101DBB22C317E
:1041C00085F8BC30032B01D385F8BC4095F8BD3091
:1041D000FF2B02D25B1C85F8BD3021B10880286816
:1041E000486028790872012085F8BE002AB100F0E5
:1041F000A7FB00F0BDFB2C606C712C7170BD000042
:1042000036000018A801001810B5094C4FF6FF71D0
:104210002068884201D2401C206000F09FFB4FF6CE
:104220003771884201D9012000E00020207110BDC3
:10423000A80100180B488089B0F57A7F01D30121CD
:1042400000E000210748407911B108B1012200E0E7
:104250000022054B5A7301B110B10020187370474A
:104260000120FBE7380600185006001870B5EFF380
:10427000108000F0010472B600204B49096888479D
:104280004A480178002321F002010170017821F0F1
:10429000010101704548883098210170434D4C352B
:1042A000297841F0C0012970A8210170982101707E
:1042B000021DB0211170A8210170982101703B49A5
:1042C000203160220A70A8220270982202700A1D12
:1042D0001370A82202700A7842F002020A700A786B
:1042E00022F008020A700A7822F004020A700A78A2
:1042F00012F0010FFBD09821017000212970A82134
:1043000001704FF050210A7842F002020A70274AE9
:1043100034320121117098210170111F0A7842F086
:1043200002020A70A822027000BF982202700A7866
:1043300022F002020A70A82202701C4D38351322A6
:104340002A70982202700A7842F002020A70A822AB
:10435000027000BF982202700A7822F002020A70EE
:10436000A82202709822027014220A70A8220270F9
:10437000982202700D4A48321370A82202709822C7
:1043800002700A7842F002020A70A822027000BF8E
:10439000982202700A7822F002020A70A8210170A5
:1043A000002C00D162B670BD2C8700112450005043
:1043B0001148016821F006010160016801F4E02163
:1043C000090C0129F9D16420FDF7D6F80B480078D3
:1043D0000A488430007801F0C5F8012001F0A0F807
:1043E00072B607499820087005496C390220087098
:1043F00020BF20BFFEE7000000E001480040005061
:10440000AC5000504FF050207F2100F8B41F012124
:1044100000F83C1C802100F8381C002100F8641CC6
:10442000052202710172812202730174017780F802
:10443000981080F8CC10704738B50D464FF6FF74D1
:104440000209ADF8004000F00F01012A09D0022A4C
:1044500019D109290ED80C4A52F82100C0F30900DD
:1044600009E06846FCF75EF908490A6860F38E3295
:104470000A6003E000208008ADF80000BDF80000ED
:10448000A04200D0288038BD50C001488C000018E0
:104490000A4900200A680A4B1A4202D14A685204AB
:1044A00000D501200A6844F240031A4202D149684B
:1044B000490601D540F0020070470000004003406B
:1044C000000040401CB50020009003460246014613
:1044D0000190FCF731FC1CBD7CB500222E498323E2
:1044E0008B2460B1012848D002284AD003284DD03F
:1044F0000023009201921A46194618463AE0264DCA
:1045000040F2F310143528802D1D28802D1D2880A1
:10451000A1F85020204D2D1D40222A8031F8402F37
:1045200022F4E04202F5405221F82229CA8E22F0FC
:104530000702CA86CA8C22F44052CA84CB8721F86B
:10454000164C154A58327A211180134B283319889A
:10455000114A20328142108001D8401C18804FF44B
:1045600080402880022028800320009003460246D5
:1045700001460190FCF7E0FB7CBDA1F85C300C81AA
:104580007CBDB020A1F85C00B22003E08C20A1F833
:104590005C00AC2008817CBD00C0004010B5002349
:1045A00003E0C45CCC545B1C9BB29342F9D310BDB6
:1045B0002DE9F041A8480168002201F4E021090C2E
:1045C000A64D072923D0016821F00601016001688A
:1045D00021F400110160016841F080710160696A95
:1045E00041F002016962696A41F4003169626969F6
:1045F00041F001016961696941F00201696169691C
:1046000041F004016961016841F0060101609449CB
:1046100091F87000934C4309206863F3000091F80F
:104620007030DB0863F3410091F870309B0863F34E
:10463000820091F8703063F3C30091F870305B082A
:1046400063F304100B7A5B0963F345100B7A1B09C3
:1046500063F386100B7ADB0863F3C71020608306D0
:1046600003D4430601D4030607D50B7A23F00803CD
:104670000B720B7A43F001030B72097A090602D51B
:1046800040F4807001E020F4807077498B695B080A
:1046900063F349208B69DB0863F38A208B699B08ED
:1046A00063F3CB202060830503D4430501D40305C5
:1046B00002D540F4805001E020F48050694E6B4FE9
:1046C00020600305A6F120060AD5F389022B04D940
:1046D0003B884B2B05D96A6303E05B1CF38100E048
:1046E000F2814A69D20602D44969890602D540F4AA
:1046F000005001E020F400505A4A2060C0F380309E
:104700001E3A0A21FCF72FFC216860F3CF312160AB
:10471000A86D544AC0F300701C3A0521FCF723FC35
:10472000216860F310412160A86DC00007D5686D55
:1047300040F080506865686D40F480106865A86D31
:10474000484AC0F3C0601A3A0521FCF70CFC216806
:1047500060F351412160A86D000107D5686D40F0FC
:1047600000606865686D40F400206865A86D3D4A8A
:10477000C0F38060183A0521FCF7F5FB216860F36F
:1047800092412160A86D400107D5686D40F08060BE
:104790006865686D40F480206865A86D314AC0F393
:1047A0004060163A0021FCF7DEFB216860F3D3413C
:1047B0002160A86D800107D5686D40F000706865C4
:1047C000686D40F400306865A86D264AC0F300604B
:1047D000143A0021FCF7C7FB216860F314512160F3
:1047E000A86DC00107D5686D40F080706865686D80
:1047F00040F480306865308AB0F57A7F02D20A30A2
:10480000308209E0880303D4080301D4C80201D52B
:10481000012000E000203070C80414D4C80312D472
:10482000880310D448030ED408030CD4C8020AD459
:1048300097F82A0028B1C80505D4B7F90E009628C4
:1048400001DCC80702D041F4001001E021F400109F
:104850002060BDE8F081000000E0014800600050E9
:10486000004000508C0000180080014868020018C9
:1048700000F062BEFFF79CBD10B500F080FABDE805
:10488000104000F045B800002DE9F04172B600F08C
:1048900077F8144E316860F3D751316062B6114D2C
:1048A000114F4FF08854203D2068696908446861C1
:1048B00000F042FE241DBC42F6D30C496869096829
:1048C000884201D0012000E00020316860F31861C7
:1048D000316000F00DF8316860F396513160BDE849
:1048E000F08100008C000018E8AF0011E8AF001163
:1048F000054810B50068804720B904480068804723
:10490000002800D0012010BD388700113087001129
:1049100072B601210948017200220272017202720C
:1049200001720272017202720172027201720272EB
:1049300001720272017262B67047000000400050BE
:104940000548017821F00402002102700248143069
:104950000170001F01707047004000480348007854
:1049600001020248001F0078084370470C400048CD
:104970000248017941F02001017170470040004870
:104980002DE9F0471A4CE069E0614FF05535E561DB
:10499000E069A8421FD14600E661E069B0421AD141
:1049A000E069E0614FF0C050124F04F1180804F1C3
:1049B0001C09A061404513D0484511D000F0BCFD52
:1049C000A0690168E16105600168A94203D1066040
:1049D0000168B14202D00120BDE8F087E1690160C1
:1049E000A069001DA061B842E4D30020F4E70000F4
:1049F0006C000018000C0018014900204863704743
:104A00000060005001480079704700000020024813
:104A1000024A02211170111F0870704708200248D5
:104A200010B50A4C208820F0400020800949084831
:104A300009688847208840F040002080FFF758FF31
:104A400005490A6860F396520A6010BD08000140EB
:104A500000B00011348700118C0000182DE9F843D4
:104A6000144688460746002515E00D4E308820F094
:104A70004001002031800090781901230022414636
:104A8000FFF7A0F9308840F040003080802C04D33C
:104A9000803CA4B28035002CE7D1BDE8F88300004B
:104AA00008000140064844F21B0181800321018275
:104AB00000210180818841F400418180704700001D
:104AC0000040024805480121818013210182002114
:104AD0000180818841F40041818070470060024874
:104AE0000F2801D2C82001E04FF6FF700880704700
:104AF0002DE9F05F0446DDE90A6B0D980D464FF095
:104B000000090380322A02D2A6F8009032E047F66C
:104B1000FF784FF4004A6FEA0807FF2A31D2A2F16A
:104B20003203934200D90023200000D50020002941
:104B300000DA0021411A814200D90021184601F013
:104B400087FD0146C820B1FBF0F06FF01802424328
:104B500001EBC201642900D3401C002D00DA0025BE
:104B60002844504500D3404600B23080A0420CDCBF
:104B700000E03480ABF800900C9801210170BDE892
:104B8000F09F544501DB4446F3E7BC42F1DA3C4672
:104B9000EFE7F0B50126059C0225277927B1677953
:104BA000012F03D072B10EE0267100E012B16571E1
:104BB000658004E062888A4202D2521C62802088AA
:104BC000188000E0667118882080F0BD00220A710C
:104BD0004A714A800280704710B5FCF75FF80248BE
:104BE0000168491C016010BDA40100184FF0E020CD
:104BF00049F64041416100218161016941F00401B0
:104C00000161016941F002010161016941F00101A5
:104C100001617047084910B54FF088500860FFF7F0
:104C200025FBFFF7E3FF00F06FFC04490020087646
:104C30000349087610BD000008ED00E00040004880
:104C40000050004819484FF04022007828B1D06E3B
:104C50001749C0F30B000885704716484169C8889A
:104C6000154B188008891B1D188048891B1D18804A
:104C7000124B40201880136C11484360D26E826042
:104C80001048027822F004020270C9890E4AB2F874
:104C90007820891A4FF6FF72511A0A0A02750174B8
:104CA000017841F0040101707047000025000018F0
:104CB00068020018E800001814C0004004C000405A
:104CC000440500180050004800C000401448007817
:104CD00008B100F015BA13484269908912490B8D4A
:104CE0001249834288BF08800BD84FF6FE7C104BD8
:104CF000844527BF0880401CA1F800C04FF6FF7014
:104D000018800C490814088010880B4B18805088B4
:104D10001B1D188090881A1D108040200880704745
:104D200025000018E800001800C0004020C0004026
:104D300028C0004004C0004014C000400648F321D1
:104D4000017380210172F521017510210174017137
:104D50000021017001767047005000480648FF218D
:104D600001730172017501745821017109210170EB
:104D7000032101767047000000400048704710B5DD
:104D8000FFF740FBFEF7D6FFFBF7DEFCFBF71AFD53
:104D9000FBF7A4FFFCF764F8FCF79AF8FEF76EFA4D
:104DA000FEF70CFBFEF734FCFEF7EAFFFFF77AFE96
:104DB000FFF788FEFFF7D2FFFFF7C0FFFFF7DEFF28
:104DC00000F01AFB00F050FBFCF7DCF8BDE81040E7
:104DD000FEF7A6BA10B500F00BF804490020887061
:104DE000487800B10120087010BD000022000018B2
:104DF0002DE9FC5F0025BC4E0095019570782C468E
:104E00000127E8B9B079D8B1401EB071FDF774FF41
:104E1000F071012815D10020FDF774FF012810D191
:104E20000420FDF76FFF05280BD10720FDF76AFF6F
:104E3000082806D17770B5710020FEF763FD00E009
:104E4000B5717078EB4601282ED1FDF755FFF07152
:104E5000032805D0F570FFF735FBF079052800D061
:104E60003571C0B24FF0030A4FF002094FF0040849
:104E700001281DD0032835D07572002000F004FCF5
:104E80005A284FF000014FF0020071D000F020FCD2
:104E90000021032000F01CFC0021042000F018FC7D
:104EA0000021052000F014FC707A012879D016E169
:104EB000777286F80A9005208DF8040006208DF898
:104EC00005008DF8007007208DF801908DF8060020
:104ED0008DF802A008208DF803808DF80700FEF7FA
:104EE00009F8CAE7FFF7D4FAB073307A032805D07F
:104EF000F57235737573F77000F002F9F07AFF28D8
:104F000001D2401CF072C0B20428B6D9777286F87C
:104F10000A80717B754ADFF8D8C1764843468DF820
:104F20000010052976D2DFE801F003243D549A00F1
:104F30007773117801F0F0039CF80010C1F30317A8
:104F40003B438DF8013001F00F03517863F31F11DB
:104F50008DF8021091788DF80310D1788DF8041037
:104F600011798DF8051051798DF80610917915E0B9
:104F70009BE086F80D90D1798DF80110117A8DF8AB
:104F80000210517A8DF80310917A8DF80410D17ABD
:104F90008DF80510017C8DF80610817C8DF80710C6
:104FA0006EE08EE086F80DA0017D8DF80110817D08
:104FB0008DF80210017E8DF80310017F8DF804102A
:104FC000817F8DF80510817E8DF80610817B503130
:104FD000E4E77373017B50318DF80110018D8DF87A
:104FE00004500A0A8DF802208DF8031042498DF80A
:104FF000055009680A0201D44A0201D5012200E0E5
:105000000022D301CA0703D10A0701D4CA0602D578
:10501000012201E032E0002243EA82138A0607D42B
:105020004A0605D40A0603D48A0701D44A0701D5E3
:10503000012200E0002243EA4212102303EA112376
:105040001A43082303EAD1210A43B17B01B10121AC
:1050500042EA81018DF806109CF804109EE7317B2E
:1050600019B17572757335730AE08DF801508DF8BA
:1050700002508DF803500195377301E07572757316
:1050800090F82B00C00700D001241C48007808B11C
:1050900044F00204002C3FF424AF012059460C5484
:1050A000401CC0B20828FAD3E7E600F011FB0A2141
:1050B000032000F00DFBFF21042000F009FB0A2172
:1050C000EFE6757200245D462046295DFDF70AFF74
:1050D000641CE4B2082CF7D3B07AFDF78BFEF079AC
:1050E0003072BDE8FC9F000022000018ECAF0011F8
:1050F0004A670011680200188C000018910000181F
:1051000010B5074CE07848B16079FFF7E5F96079B0
:10511000401CC0B26071032801D90120607110BD2C
:10512000220000182DE9F041FDF7E6FD10287DD1A1
:10513000002401262046FDF7E5FDF82876D1012060
:10514000FDF7E0FD074601460020FDF7CBFE0121FB
:105150008848894D894A0C2F24D2DFE807F0060DD4
:1051600024394791A6ABC8C1CEEF854C02202188D7
:10517000FDF7A6FEA18894E00620FDF7C3FD0546D5
:1051800001460120FDF7AEFE2819C0B2FBF7ACFFC7
:10519000C0F30721A01CC0B2FDF7A4FE641CE4B25A
:1051A000062CF1D39CE005460088010A0120FDF79A
:1051B00099FE29780220FDF795FE6888010A0320F0
:1051C000FDF790FEA9780420FDF78CFE2979C6E052
:1051D000B2F904100120FDF761FEB5F900100220BC
:1051E000FDF75CFEB5F90210032060E0E88800F0EE
:1051F0000101E88861F35F00E988C1F3400140EAFA
:105200008100E9881446C1F3800140EAC101907928
:10521000000110300143D079800140300143C9B210
:105220000120FDF75FFEE07A217B00E0A0E040EA8C
:10523000410154480079022820D003281ED00020C4
:10524000627BC00040EA82000143C9B20220FDF740
:1052500049FE00210320FDF745FE00210420FDF753
:1052600041FE217A0520FDF73DFE617A0620FDF71B
:1052700039FEA17A0720FDF735FE33E00120DFE794
:10528000414C0120B4F90C10FDF708FEB4F90E10E2
:105290000220FDF703FE608800EB400101EBC00037
:1052A00081B20320FDF70CFE1CE000210120FDF778
:1052B000F5FD17E00620FDF725FD05460146012016
:1052C000FDF710FE2819C0B2FBF70EFF00F07F01BA
:1052D000A01CC0B2FDF706FE641CE4B2062CF1D39C
:1052E000002E45D0BDE8F0412020FDF783BD2748C2
:1052F00001700120FDF710FDF4E700210120FDF70A
:10530000F1FD00210220FDF7EDFD00210320FDF756
:10531000E9FD1F4C2068010E0420FDF7E3FD206825
:10532000C0F307410520FDF7DDFD2088C0F307210C
:105330000620FDF7D7FD21789CE7FFE741790120A2
:10534000FDF7D0FD00210220FDF7CCFD0021032058
:10535000FDF7C8FD00210420FDF7C4FD0021052054
:10536000FDF7C0FD00210620FDF7BCFD002181E70F
:10537000BDE8F0814A670011940200185006001839
:1053800036000018E00000186802001890000018AD
:1053900080000018FEF7E4BEFEF736BF70B54FF090
:1053A000502090F83000400609D510480078C0071A
:1053B00005D000F037F80D490831012008700C4C79
:1053C000207E0C4D800706D52078000603D5FFF718
:1053D000E3FF80202870207EC00706D0207840069A
:1053E00003D5FFF7D7FF4020287070BD00000248AA
:1053F000004000481C4000480849402008704FF019
:105400005020002100F8881F1022027246220271EB
:10541000017003492820086070470000000002481E
:105420009801001800F0BABA70B54FF0502595F801
:1054300034000B4E0B4C400606D53078C00703D025
:1054400000F028F80120207095F83400000606D5F9
:105450003078800703D500F01FF80220207070BD5F
:1054600000200248082002480849502008704FF0E8
:105470005020002100F8981F202101728D21017118
:10548000012101700249282008607047002002486D
:105490009C010018FDF748BCFDF7C4BCF0B54FF601
:1054A000FF76771C0024824209DA18880146401CE6
:1054B000491CB94200D3304618805C8011E08A4212
:1054C0001C8007DD5D88681C6D1CB84200D3354622
:1054D0005D8006E05C809C88601C641CB84200D340
:1054E00034469C80F0BD70477FB55A23CDE9023227
:1054F0005025AA24B4230A22CDE90045FBF768FA17
:105500007FBDFBF7EBBA000003493F204863034827
:10551000002141600170704700600050A001001838
:1055200003498007000E4863024901200870704754
:1055300000600050A0010018084900204A68B2F538
:105540002F7F02D20A78012A06D1054A3F205063F4
:10555000002048600870012070470000A00100187A
:10556000006000504FF0E020016921F0010101616D
:10557000704702E008C8121F08C1002AFAD170471C
:105580007047002001E001C1121F002AFBD17047C3
:10559000002801DBC8407047C043C840C043704783
:1055A00030B50C460546114600F0A6FE024901EB57
:1055B000C5004068047030BD3C86001170B5094DCF
:1055C0000A44D2B20C4605EBC00008E045689E18BC
:1055D000521E2D5D641C06F8015CD2B2E4B28A4210
:1055E000F4D870BD3C860011F0B50D461E46144639
:1055F0000746059900F080FE60190849C0B22C46A4
:1056000001EBC70106E0325D401E4B68641CE4B24A
:105610001A54C0B2A842F6D8F0BD00003C86001172
:10562000C14311F0FF0F4FF00002C0F3072105D076
:10563000FF2902D10349C0B20A54704702484254BC
:1056400070470000700600184E010018C14311F0A9
:10565000FF0FC0F3072103D0FF2904D000207047BB
:105660000348405C70470349C0B2085C70470000C3
:105670004E0100187006001800F034B910B500F0A3
:105680009CFB002010BD0000034901EBC0004068F6
:10569000008840BA704700003C86001130B50C46C7
:1056A0000546114600F028FE0449220A01EBC50018
:1056B00041680A704068447030BD00003C860011AB
:1056C000024901EBC0004068007870473C86001139
:1056D000014A127800F002B89601001830B50C4665
:1056E0000546114600F008FE024901EBC50040687E
:1056F000047030BD3C86001102465220202A0AD197
:105700002120087022204870232088702420C8702F
:10571000252008715420704710B500F089FEBDE8BF
:10572000104000F02BBB3C2901D07D2900D1002185
:10573000027809E010F8013F194489B2FF2901D924
:10574000FF3989B2521ED2B2002AF3D1C843C0B287
:10575000704700002DE9F041184807210668F278EB
:10576000101D40B290420BDD735CFF2B04D0022869
:1057700002DD1022002119E0491E49B2401EF0E767
:105780000425521C0E4F54B24FF0FF08705D90B1CB
:10579000FF2803D0012100F038FB38556D1C641C34
:1057A0006DB264B2082DF1DB00220121BDE8F041A9
:1057B000B72000F0FDBC07F80480EFE77401001883
:1057C00052010018164830B4006841790A02017984
:1057D0001143C279130282791A43124B1C888C42FE
:1057E00003D0A1F5FE44FF3C06D15988914208D070
:1057F000A2F57F41FF3904D00B490020087030BC6E
:105800007047C2781AB1A2F120001F2801D80121E7
:1058100001E01222002130BCB22000F0C9BC00001F
:10582000740100182287001169010018064A04213A
:10583000535CA1F10101834201D1C8B2704711F05C
:10584000FF01F5D1FF207047520100180948017887
:1058500021F0040101700E384FF47A6181814FF01C
:10586000502111F8942F22F001020A70002141709A
:10587000704700008601001870B504460D460846C2
:10588000FFF7D4FF0E49E41E052C487011D2DFE863
:1058900004F01003030303000A4911F83000012843
:1058A00002D00949012008703C2D02D1074900208F
:1058B000087000F011FD2846BDE8704000F0B8BD4A
:1058C00094010018F08600116B010018690100189E
:1058D00003480078052801D800F022B8704700007E
:1058E00038860011044810B50078052802D8002039
:1058F00000F018F8002010BD38860011044910B5DA
:105900000978052901D800F0C9F9002010BD000070
:10591000388600110148407870470000780100186F
:10592000FFF794BF1A4908701A4888614FF0502059
:1059300010F8881F41F001010170017B21F0060180
:10594000891C0173017B41F040010173017B41F02F
:1059500001010173017B21F001010173017F41F01D
:1059600008010177017F41F010010177017F41F0CB
:105970002001017708490A7842F010020A7010F8F5
:10598000581C41F0400100F8581CFFF75FBF0000B1
:105990007801001882060018000002482DE9F05F27
:1059A0004FF0502696F89400B94DDFF8E8B2BA4FA0
:1059B000C0064FF00403A5F10E0814D596F8A40014
:1059C00040F0080086F8A40096F8A40040F010000B
:1059D00086F8A4002B70BBF80E00A8F8080003207E
:1059E00088F8010023E096F8940080060ED596F81A
:1059F000A40040F0080086F8A40096F8A40040F047
:105A0000200086F8A400FFF721FF10E03878800717
:105A10000DD53878C0070AD098F805003979884242
:105A200005D098F80100072819D0082817D0387831
:105A30004FF0010AC00733D03878400730D498F8C7
:105A400001000A282CD058B32978062841F00A0111
:105A5000297018D0072816D0082814D01AE0397AEF
:105A600041F002013972397A41F001013972297825
:105A7000072841F02201297001D0082848D198F860
:105A80000310062042E098F80310042000F0A8F963
:105A900088F807A0FFF7DAFE387A40F00100E6E068
:105AA000387A40F0010038723C7998F801004FF0E4
:105AB0000909C01E082809D2DFE800F0040A082BF3
:105AC00075B508DB552CD9D188F80130BDE8F09FB9
:105AD00088F804400121204600F097F988F8030077
