:020000040800F2
:10000000F00B0020810200084B67000895530008A0
:1000100047670008352F0008CD7700080000000072
:10002000000000000000000000000000197000083F
:10003000652F000800000000256F000865720008A9
:100040009B0200089B0200089B020008C56F000885
:100050009B0200089B020008DD3200089B0200089A
:10006000F132000805330008193300089B0200082C
:100070009B0200089B0200089B0200089B020008EC
:100080009B0200089B0200089B0200089B020008DC
:100090009B0200089B0200089B0200089B020008CC
:1000A0009B020008717200089B0200089B02000876
:1000B0009B0200089B0200089B0200089B020008AC
:1000C0009B0200089B0200089B0200089B0200089C
:1000D0009B020008017700081D7700089B020008BA
:1000E0009B0200089B0200089B0200089B0200087C
:1000F0009B0200089B0200089B0200089B0200086C
:100100009B0200089B0200089B0200089B0200085B
:100110009B0200089B020008117300089B02000864
:100120009B0200089B0200089B0200089B0200083B
:1001300000F002F800F094F80AA090E8000C824465
:100140008344AAF10107DA4501D100F089F8AFF242
:10015000090EBAE80F0013F0010F18BFFB1A43F0A5
:1001600001031847ECD702000CD80200103A24BF54
:1001700078C878C1FAD8520724BF30C830C144BF0C
:1001800004680C607047000000230024002500264E
:10019000103A28BF78C1FBD8520728BF30C148BFEA
:1001A0000B6070476E2900F08885702900F043824B
:1001B00066290EF0618365290EF05E8367290EF0D3
:1001C0005B8361290EF05A8303681B0A28BF41F044
:1001D0008001692900F0B481642900F0B18175299A
:1001E00000F0AE816F2901F08480782900F00F8241
:1001F000E92901F01F80E42901F01C80F52901F0B4
:100200001980EF2901F08180F82900F00E8203683F
:10021000DB0928BF41F08001632900F0A087732922
:1002200000F0A587E32901F0D985F32901F0DE85E7
:10023000002070471FB59DE8030000F09DFC01F011
:1002400099FB0400002000210DF000FE401C6060BE
:10025000002000210DF010FEE0601FBD10B510BDA4
:1002600001F0B2FE1146FFF7E5FF0CF03FF902F096
:1002700013F903B4FFF7F2FF03BC02F043F90000E7
:100280000948804709480047FEE7FEE7FEE7FEE72A
:10029000FEE7FEE7FEE7FEE7FEE7FEE70448054966
:1002A000054A064B704700006D72000831010008D6
:1002B000F0050020F00B0020F0070020F0070020E0
:1002C00070B5064600F038FC056806F10B0020F01A
:1002D0000704B4429CBF002070BD2B466A68BAB1C7
:1002E0001068A04210D304F1080188423CBF506856
:1002F000586007D35168101941601168091B0160EB
:1003000058601460101D70BD13465268002AE7D172
:100310002146284600F01CFC0028DED170BD70B5D7
:100320000446051F00F008FC0068002C14BF446858
:1003300070BD002C18BFAC423CBF20466468F8D3A7
:1003400001680A18AA4218BF456003D12A68054609
:100350001144016028684119A1421CBF6C6070BD46
:100360006168696021680844286070BD70B50D46F9
:100370000646041F00F0E0FBD0F800C0C5B1E6B1AE
:1003800005F10B0020F00703AB423CBF002070BD1D
:100390002068984238BFDCF8042013D3C11A08291A
:1003A0002FD3E01840F8041B2360FFF7B8FF28E0C4
:1003B0003046FFF7B4FF002070BD2846BDE870400E
:1003C000FFF77EBF002A18BFA2423CBF9446526886
:1003D000F8D30119914216D111680844984212D3FA
:1003E000C11A08293CBF2060506808D35168E01842
:1003F0004160216812681144C91A01602360CCF879
:100400000400201D70BD181FFFF75AFF050007D01C
:1004100021680A1F211D00F0C7FA201DFFF77FFF8A
:10042000284670BD10B5044600F07EFB0068005DF4
:10043000C00602D504F1200010BD204610BD00000A
:100440007CB51D4616460C00009001D02044401E8D
:10045000074B7B442A4669460190304600F055FE22
:1004600005461CB10020694600F062FE28467CBDAE
:10047000E50C00000FB41CB5084B06AA7B44694686
:100480000090059800F041FE04460020694600F007
:100490004FFE20461CBC5DF814FB0000B10C0000B0
:1004A00070B5044685690068C10601D5302600E0B4
:1004B0002026C00707D070BDD4E9012130469047FF
:1004C000206A401C20626D1EF6D570BD70B50446D2
:1004D00085690078C00707D170BDD4E901212020CB
:1004E0009047206A401C20626D1EF6D570BD70B525
:1004F0000C460546012A05D02878800600D5EA6911
:10050000002302E0012305E05B1C934202D2E05C81
:100510000028F9D1A869E618C01AA861286A184409
:1005200028622846FFF7BCFF04E0D5E9012114F852
:10053000010B9047B442F8D32846FFF7C7FF70BDC0
:100540002DE9F0410646002410687529314616A5AC
:1005500010D000F047FB002802DA404213A507E064
:1005600031688A0701D512A502E0490704D511A513
:10057000012401E000F03FFB00210A2206F12407DC
:1005800009E0B0FBF2FCB0FBF2F302FB1C003030E0
:1005900078541846491C0028F3D123462A46304691
:1005A000BDE8F04100F030BB000000002D0000006D
:1005B0002B00000020000000F0B40D460188090562
:1005C00002D5214C7C4402E01F4C7C440E340021B7
:1005D00000F1240608E002F00F071209E75D42EA85
:1005E00003721B097754491C52EA0307F3D10278BE
:1005F0000023120704D5702D06D009B1022311344F
:100600002246F0BC00F000BB01231034F8E770B5BF
:1006100004460D462146106800F0EDFA02462946D0
:100620002046BDE870400023C6E7D21D22F0070334
:10063000D3E90023C0E70368126843F02003036096
:100640000823C3610023B7E72AD202002DE9F05F37
:10065000894604464FF0000ADFF874B1FB44C0F845
:1006600020A02046E1688847002874D0252806D0BD
:10067000D4E901219047206A401C2062F1E700265E
:100680005F462046E16888472028054607DB312D74
:1006900005D2781910F8200C08B10643F1E7B0072D
:1006A00001D526F00406C4F81CA00027C4F818A041
:1006B0002A2D09D0284607F044FA38B304EB8708FE
:1006C000303DC8F8185019E059F8041B204604EBD7
:1006D00087029161E1688847012F054618D1E069DA
:1006E000002820DA26F020061DE0D8F8180000EBDC
:1006F000800005EB40003038C8F818002046E1685B
:100700008847054607F01DFA0028EED1012F0AD0D0
:100710002E2D08D12046E16888477F1C0546022F10
:1007200046F02006C4DBA069002803DA404246F008
:100730000106A061F00701D026F010066C2D0BD049
:10074000682D09D04C2D39D06A2D35D0742D35D077
:100750007A2D33D016E038E0E1682F4620468847EE
:10076000B842054609D16C2F26D04FF48060E1686D
:10077000064320468847054604E06C2F1AD04FF404
:10078000807006430DB3A5F14100192802D8203529
:1007900046F400664A462946204626604E46FFF744
:1007A00001FD80B101280BD0F61D26F0070000F1F5
:1007B000080956E74020E4E78020D8E70020D6E784
:1007C00006F104094DE7284652E7206ABDE8F09F8C
:1007D000BAD1020070B5064600F0B2F904680546C9
:1007E00030460A22002101F089F82C6070BD401EBD
:1007F000CAB210F8011F8A4202D00029F9D10020A4
:10080000704710B5431E13F8014F002CFBD105E0D3
:1008100011F8014B002C03F8014B03D0521EF7D204
:100820000021197010BD30B505460B462A4613F855
:10083000014B12F8010B08B1A042F8D01CB10028FE
:1008400002D06D1CF1E7284630BD10B5431C02E014
:1008500010F8011B71B18107FAD14FF0013202C8C3
:100860008C1A8C4314EAC211F9D0C01A0A0603D0BC
:10087000C01E10BDC01A10BD0A0401D0801E10BDDC
:100880000902FCD0401E10BD40EA010370B59B0771
:100890002ED14FF00136042A2AD308C810C99D1B57
:1008A0009D43121F15EAC61517D0D8B2E1B2401AFF
:1008B00050EA056110D198B2A1B2401A50EA054140
:1008C0000AD123F07F4024F07F41401A50EA0521ED
:1008D00002D1180EA0EB146070BDA342DBD018BA91
:1008E00021BA884201D9012070BD4FF0FF3070BDA0
:1008F0000AB9002070BD10F8013B11F8014B63B13B
:10090000A3420AD1521E08D010F8013B11F8014B46
:100910001BB1A34201D1521EEDD1181B70BD032A99
:1009200040F2308010F0030C00F0158011F8013B0C
:10093000BCF1020F624498BF11F801CB00F8013BF3
:1009400038BF11F8013BA2F1040298BF00F801CBB7
:1009500038BF00F8013B11F0030300F02580083A8E
:10096000C0F0088051F8043B083A51F804CBA0E8E5
:100970000810F5E7121D5CBF51F8043B40F8043B3A
:10098000AFF30080D20724BF11F8013B11F801CB6F
:1009900048BF11F8012B24BF00F8013B00F801CB40
:1009A00048BF00F8012B704710B5203AC0F00B800B
:1009B000B1E81850203AA0E81850B1E81850A0E863
:1009C0001850BFF4F5AF5FEA027C24BFB1E81850BD
:1009D000A0E8185044BF18C918C0BDE810405FEA2D
:1009E000827C24BF51F8043B40F8043B08BF7047A9
:1009F000D20728BF31F8023B48BF11F8012B28BFAE
:100A000020F8023B48BF00F8012B70474FF000026E
:100A10000429C0F0128010F0030C00F01B80CCF110
:100A2000040CBCF1020F18BF00F8012BA8BF20F87E
:100A3000022BA1EB0C0100F00DB85FEAC17C24BFD2
:100A400000F8012B00F8012B48BF00F8012B70477C
:100A50004FF0000200B5134694469646203922BF57
:100A6000A0E80C50A0E80C50B1F12001BFF4F7AFA2
:100A7000090728BFA0E80C5048BF0CC05DF804EB84
:100A8000890028BF40F8042B08BF704748BF20F8F2
:100A9000022B11F0804F18BF00F8012B70470000A7
:100AA0004FF0013C50F8042B51F8043B9A4221D1FD
:100AB000A2EB0C03934313EACC1317D150F8042B89
:100AC00051F8043B9A4215D1A2EB0C03934313EA6D
:100AD000CC130BD150F8042B51F8043B9A4209D1A6
:100AE000A2EB0C03934313EACC13DBD04FF00000CE
:100AF000704700BFD01A01BAB1FA81F101F01801B4
:100B000022FA01F0CB40C1F12001DBB2C0B2C01A21
:100B10002CFA01F3D11A914311EAC311E6D17047BF
:100B2000704770477047000010B500F023FF001DAC
:100B300010BD00BF19D30000004870479805002081
:100B40000048704790050020704770477047704715
:100B500038B504460A4600206946AFF300800028F5
:100B600008BF38BD02460099204600F007FF01206B
:100B700038BD012001F020BAF8B5AFF3008005467A
:100B800000200C46102000BF0646A819A0420DD92F
:100B9000324669460020AFF30080070008BF01F02D
:100BA0000BFA0098A04218BF0546C419FFF7C4FF0E
:100BB00005600746F01D20F007004619284600F0A2
:100BC0000AF8B44208BFF8BDA21B31463868BDE838
:100BD000F84000F0D3BE00210160C0E90110704769
:100BE0001020704709684A0501D540B27047C90511
:100BF000FCD500B2704709684A0501D5C0B27047FC
:100C0000C905FCD580B270472DE9F0470D469946DD
:100C10009246044600F124080168880604D5E0697C
:100C200021F01001216000E00120A84201DD471BF6
:100C300000E00027A1697A1902EB0900081AA061F7
:100C40002078C00602D42046FFF72AFC002608E0E0
:100C5000D4E901211AF806009047206A401C761C4E
:100C600020624E45F4DB2078C0060AD52046FFF707
:100C700017FC06E0D4E9012130209047206A401C8F
:100C80002062381EA7F10107F4DC07E0D4E9012156
:100C900018F805009047206A401C2062281EA5F124
:100CA0000105F3DC2046FFF711FC2078000602D591
:100CB0000220BDE8F0870120FBE711680268006AA6
:100CC000530501D508700AE0D30501D5088006E078
:100CD000130603D5C217C1E9000200E00860012035
:100CE000704770472DE9FF4F0C461E464FF0FF3707
:100CF0008BB0D2E90001DDF860800A908A46C1F32A
:100D00000A5505B93D46002108464FF00000BAF1EA
:100D1000000F00F4400005DA00EB80004FF44001C2
:100D200001EA50004FEA9059B9F1010F00DDB946D0
:100D30000A9850EA4A000ED044F61050A5F2FF354A
:100D400045432F14B8F1000F1ED07542291E1EDD39
:100D5000C9F100021CE0B8F1010F4FF0000001D012
:100D6000302103E0F24305E02154401CB042FBDB9C
:100D700030460022002121540B99C1F80880C1E9B6
:100D800000200FB0BDE8F08FBD1B6D1CDEE74A46AA
:100D900000DA694206A801F07DF806AB93E8070087
:100DA00003AB83E8070050460A9901F0E4FB8DE8A5
:100DB0000700A0F500501F3800900398002D0ADDB1
:100DC00042F21F014A460844002303A903906846E3
:100DD00001F090FE09E0A0F500504A461F380023BC
:100DE00003A90390684601F0AFFE8DE807000004F8
:100DF000000C03D04FF0FF30410800E01046B8F17E
:100E0000000F03D00022009215461EE0751E05D487
:100E100000F0CEFD303262556D1EF9D5B346012289
:100E2000084302D000227F1C04E02078302801D142
:100E300000227F1E002A099784D01DE0112D07DAB9
:100E400000F0B6FD303262556D1C50EA0102F5D15A
:100E5000084302D00098C8B10EE00021681E05E0EA
:100E6000235C625C63542254401E491C8142F7DBC0
:100E7000AB46A81B401E0990002004F80B000B98FD
:100E8000099AC0F80880C0E9002B7AE711264FF0D4
:100E9000000857E72DE9F04F88460446D21D22F09E
:100EA000070191B0D1E90001CDE90A0106F098FDF2
:100EB00002460B98C00F01D02D2007E02068810763
:100EC00001D52B2002E0202101EAC000032A09906D
:100ED00001D0072A05DB03464146204600F034FFD7
:100EE0000BE12078800601D5E06900E00620B8F12A
:100EF000650F814606D0B8F1660F18D0B8F1670FBC
:100F000070D131E00020B9F1110F009001DB112305
:100F100001E009F101030AAA01A90CA8FFF7E2FE0A
:100F2000DDE90C70002609F10105834647E0012048
:100F30004B4600904FF000470AAA01A90CA8FFF702
:100F4000D1FEDDE90DB00C995D46002610B909F11E
:100F500001000D18B9EB050003D4C0F1FF3609F10B
:100F60000105A5EB09002BE0B9F1010F01DA4FF003
:100F700001090020B9F1110F0090484601DD11234D
:100F800000E003460AAA01A90CA8FFF7ABFEDDE9C1
:100F90000C704D4600268346207800070AD4AB45E6
:100FA00000DA5D4601A8012D04DD411911F8011C8C
:100FB000302907D04F4502DA17F1040F04DA012077
:100FC00082460FE06D1EEEE7002F02DCED1B3E4473
:100FD00003E0781CA84200DD7D1CB81B00F1010A6B
:100FE0004FF000472078000703D4AA4501DB4FF0FB
:100FF000FF3A0021B7F1004F0DF143088DF843107F
:1010000024D002202B23002F01DA7F422D230A2136
:10101000021EA0F1010000DC5FB197FBF1FC97FB21
:10102000F1F201FB1C7C17460CF1300C08F801CDE5
:10103000EEE7A8F1010003702188090501D54521DB
:1010400000E06521A0F1010800F8011C09980FA932
:10105000A1EB0807FF1D00B10120411901EBEA7067
:10106000A1693844081A401EA0612078C00602D445
:101070002046FFF715FA099828B1D4E901219047D5
:10108000206A401C20622078C00622D52046FFF747
:1010900007FA1EE0002E04DBB34502DD01A8805DE7
:1010A00000E03020D4E901219047206A401C2062F2
:1010B000761CAAF101005FEA000A0AD100F05AFC8E
:1010C000C0680168405CD4E901219047206A401C57
:1010D0002062281EA5F10105DCDC07E0D4E901212E
:1010E00018F8010B9047206A401C2062381EA7F1B7
:1010F0000107F3DC2046FFF7E9F9032011B041E6D0
:1011000001694A1C02610878704700B58FB0CDE9CB
:1011100001310021059105497944CDE903101146BB
:101120006846FFF793FA0FB000BD0000E5FFFFFF30
:101130000A6802F8010B0A607047D1E900239A425D
:1011400002D2531C0B601070704710B5436913B185
:10115000AFF3008001E0FFF7CAF9012010BD12785B
:1011600000F124010A7000224A700122EDE71168A3
:101170004FF0FF32E9E700002DE9FF5F15468A4690
:101180000446DFF8AC80F8440027D8E900103E465A
:10119000CDE9001010E03AF816106A4602A800F0F7
:1011A000EBFE411C07D02178890603D5E269391886
:1011B00091420DD80744761C2078800602D5E0695C
:1011C000B84205DDAE42E6DB3AF816000028E2D16F
:1011D000A069C01BA0612046FFF762F9D8E90010A2
:1011E000CDE90010002017E03AF818106A4602A86E
:1011F00000F0C2FEB0F1FF3F81460BD000250DF19B
:10120000080B05E0D4E901211BF8050090476D1C8F
:101210004D45F7D308F10100B0428046E4DB206A77
:10122000384420622046FFF751F9BDE8FF9F0000D7
:10123000A2C602002DE9F0418046D21D22F007022D
:101240000025D2E90002F52915A614D0011E72F17D
:10125000000106DA0023D0EB030063EB020211A6C3
:1012600008E0D8F800108B0701D50FA602E0490767
:1012700001D50EA601251146002408F1240704E03B
:1012800000F096FB30323A55641C50EA0102F7D167
:101290002B46324621464046BDE8F041FFF7B4BC3C
:1012A000000000002D0000002B00000020000000C6
:1012B00030B4002100F1240408E002F00705D20850
:1012C000303542EA4372DB086554491C52EA030593
:1012D000F3D10468002310A2250707D5A40600D483
:1012E00021B1C46901230DA2641EC46130BCFFF7A3
:1012F0008BBC10B5044621461068FFF77CFC024603
:101300002046BDE810400023D2E7D21D22F007019D
:10131000D1E90023CCE7000000000000300000000D
:101320002DE9FF4F06468BB00878FF2806D0491CF0
:101330002D2805D000244FF0000908E000200CE023
:101340000124F8E709EB8903491C00EB43090878FD
:10135000FF28F7D114B1C9F10000814610780025AB
:101360002C46AA4629462D2801D02B2804D1521CF0
:101370002D2813D0002082468B461078FF280FD0EE
:101380004FF0000C0A21521CA5FB017804FB0181DF
:1013900005FB0C11C5194BEB0104EEE70120EAE750
:1013A000002108464FF00000BAF1000F02D000EB18
:1013B00080004008C0F38157012F01DD4FF0FF3757
:1013C0000E9955EA040009EB01080BD04FF0020911
:1013D00018F5FA7F16DA4FEACA70002F706008DD40
:1013E000012007E04FEACA70C6E900B00FB0BDE8BF
:1013F000F08F00203060FFF7A3FBC0F800901821A9
:10140000084616E0B8F5FA7F18DD002F02DAF74833
:10141000784401E0F6487844D0E90010C6E90010AD
:1014200040EACA707060FFF78BFBC0F8009014218F
:1014300008460FB0BDE8F04F0DF01BBA002108467A
:101440004FF00000B8F10001099002DAC7F1000284
:1014500000E03A4601DAC8F1000106A800F01AFDE2
:1014600006AB93E8070003AB83E8070044F23E00B5
:101470005BEA04010090584604D144F21E012C4658
:101480005D460091210C0904014306D10099240412
:1014900044EA15442D041039009104F07F410143C2
:1014A00006D10099240244EA15642D0208390091FE
:1014B00004F07041014306D10099240144EA1574F7
:1014C0002D01091F009104F04041014306D100990C
:1014D000A40044EA9574AD00891E009104F0004117
:1014E000084304D100986D196441401E00904FF0EC
:1014F00001033A466846B8F1000FCDE9014503A95A
:1015000002DD01F036FB01E001F009FBBAF1000F4A
:1015100004460D4601D084F00044002108464FF0F7
:101520000000099940F2FF77484010F00C0F07D1F6
:1015300024F00040284303D0C4F30A50B84212D12B
:10154000FFF7FEFAC0F80090C4F30A50B8420AD17F
:10155000A8487844D0E90010C6E9001004F0004122
:101560000843706042E7C6E900543FE72DE9FF4FAA
:101570001F464FF0000A4FF0FF38454691B0D7E9BB
:101580000146CDF83CA000F0F5F9C0680168405C68
:101590001090B96912986D1C8847396A814688474E
:1015A0000028F6D1B9F1FF3F0AD0002E24F4D06410
:1015B00011DDB9F12B0F08D0B9F12D0F0BD102E0DD
:1015C000404615B013E744F48064B96912986D1C65
:1015D0008847761E8146600504A901D52D2000E0CC
:1015E0002B20002E01F1010B0DF130088DF81000B9
:1015F0003FDDB9F1690F08D0B9F1490F05D0B9F154
:101600006E0F02D0B9F14E0F1CD13B4601A80095D8
:1016100080E85002DDE912126FF002000DF094F93B
:10162000C11CCED10EE0B96912986D1C8847814665
:101630001398761E44F4007405600F98401C002E29
:101640000F9016DDB9F1300FEDD0B9F1780F02D05F
:10165000B9F1580F0DD10F9801280AD13B46CDE9B9
:101660000054DDE91212001F02960DF06BF9C11C47
:10167000A7D1109989453ED144F0800406E0139922
:10168000681CAAF1010A44F400740860B9696D1C71
:101690001298761E884730288146F0D02BE01099AA
:1016A000894505D1200603D4761E44F0800418E055
:1016B000484606F046FA08B3761E0DF123018B4525
:1016C00044F4007408D2A9F130000BF8010B200695
:1016D00007D5AAF1010003E0200602D40AF10100B7
:1016E0008246A00502D51399681C0860B969129852
:1016F0006D1C88478146002ED1DC53E0002E51DD61
:10170000B9F1650F02D0B9F1450F4BD1A00549D50C
:10171000B9696D1C1298761E24F440748847002E17
:1017200081460CDD2B2804D0B9F12D0F07D144F4EC
:101730008074B96912986D1C8847761E8146E00551
:1017400001D52D2100E02B2108F8011BCDF80080E8
:1017500021E0761E0DF13901884544F400740CD265
:10176000A9F1300010F0FF0088F8000002D10099C4
:10177000884509D908F1010806E0E00501D51E48B1
:1017800001E042F20F708246B96912986D1C8847D9
:10179000814613980560002E04DD484606F0D1F915
:1017A0000028D6D1F96912988847FF2053468BF854
:1017B000000088F8000000200A900B9004AA0CA9F1
:1017C0000AA8FFF7ADFDA00502D46FF00100F8E60E
:1017D00014F0240F12D0E0071CD13868DDE90A129A
:1017E000031D3B600068C0E9001213E064C50200FD
:1017F00056C502001AC40200F1D8FFFF0AA96846C4
:1018000006F02EF9E00705D13868009A011D39600D
:10181000006802602846D4E6426842B1016811F8C7
:10182000013B23B1521EC0E9001218467047012146
:10183000C160881E704742685AB1C368016843B9E5
:1018400083688B4205D0491E521CC0E9001200205B
:1018500070474FF0FF3070470FB4002300B589B0D8
:101860000CA900910B99CB60214B7B440693214B33
:101870007B44079304236FF00042CDE901321E4AF6
:101880007A446B460892024600200DF059F809B0E0
:101890005DF814FB70B506464FF0FF3015460C4658
:1018A000324686B00091CDE90101694600200490DE
:1018B00004A8FFF7D1FF02460498211825B108B10A
:1018C000084600E020462860049800280DD0002A31
:1018D00002DD0098884208D03246081B6946009411
:1018E000CDE9010404A8FFF7B7FF06B070BD000002
:1018F000ABFFFFFFC3FFFFFFB70100002DE9F0477B
:1019000091460F4680460446002614F8015B2DB12F
:10191000FFF70AF90068405DC007F6D12B2D02D011
:101920002D2D18D0641E4A463946204600F062FA32
:1019300027B13968A14201D1C7F800804FF00204F5
:1019400071050BD54042002803DDFFF7F9F804606C
:10195000A007BDE8F08746F48066E4E70028F8DADF
:10196000FFF7EEF804606FF00040F2E700487047C0
:101970009005002000487047B005002003464068ED
:101980008C46002818BF88423CBF03464068F8D305
:1019900018681844884207D00CF1030020F00700B3
:1019A000001D411A521A0146081D0A60FEF7B7BC15
:1019B00030B5B0F10A024FEA900E71F100034EEA21
:1019C000817EB0EB0E0061EB91014FEA101E4EEAF2
:1019D000017E10EB0E0041EB11114FEA102E4EEA82
:1019E000016E10EB0E0041EB11214FEA104E4EEA52
:1019F000014E10EB0E0041EB1141401841F1000186
:101A00004FEAD00040EA41704FEAD10110EB800567
:101A10004FEA810444EA907444EB01046D1944EBED
:101A20000404521BA3414FF0000348BF0A3200D503
:101A300030BD401C41F1000130BD10B50446FFF738
:101A400073F80068005D00F0010010BD2DE9F04F53
:101A500004460D46D21D22F0070089B0D0E9009758
:101A60004846394605F0BCFF0246F80F01D02D2349
:101A700007E02068810701D52B2302E0202101EA3D
:101A8000C0038DF820300BB1012000E00020032AB4
:101A9000824601D0072A04DB2946204600F054F98B
:101AA0003FE12078800601D40D2500E0E569C7F309
:101AB0000A560D2D49DA00214FEA175B08464FF010
:101AC0000000002F00F4400007DA00EB80004FF424
:101AD000400100EBD07001EA60008115012901DDB1
:101AE0004FF0FF3100224FEA850CBCF1180F06D3EE
:101AF0001346ACF118004FF08052C24003E04FF49F
:101B0000801323FA0CF30CF10C0CBCF1200F04D35E
:101B1000ACF1200C09FA0CF001E007FA0CF00029F6
:101B20004FF0004801DD18B90FE00ED140450CD34D
:101B300019EB02095F4121B9404502D19F4329EACF
:101B40000209BBEB175F00D0761C2088000502D588
:101B50007B48784402E07A487844193808AA302350
:101B600002F80A30037C0AF10101002E0AF1020A90
:101B700053546A4602DC4FF0300101E04FF031016E
:101B80004FF001088DF8001002D0A6F2FF3603E0F6
:101B900059EA470100D06B4E002D02DC217809077D
:101BA00004D54FF002082E218DF80110C446002103
:101BB0000BE0C7F303433F01C35C491C6D1E02F8F1
:101BC0000830052908F1010801DA002DF1DC0021B7
:101BD0000CE000EB1973491C1B786D1E082902F8F4
:101BE00008304FEA091908F1010801DA002DF0DC8C
:101BF00021688B0602D516E0A8F10108E04505DD55
:101C000002EB080313F8013C302BF5D0B8F1000FBC
:101C100009DD02EB080313F8013C2E2B03D1090761
:101C200001D4A8F10108002D05DD3E2102F80810BD
:101C30006D1E08F10108407C002E02F8080008F132
:101C4000010804DA2D20764202F8080002E02B2079
:101C500002F808000A214FF47A70864208F1010860
:101C60000BDB96FBF0F3303302F8083096FBF0F311
:101C700008F1010800FB136601E0642E0CDB642010
:101C800096FBF0F3303302F8083096FBF0F308F1DE
:101C9000010800FB136601E00A2E06DB96FBF1F05B
:101CA000303002F8080008F1010896FBF1F001FB62
:101CB0001060303002F80800A16908F1010808EB53
:101CC000050202EB0A00081AA0612078C00602D4BF
:101CD0002046FEF7E5FB216A08AE01EB0A00206210
:101CE00004E0D4E9012116F8010B9047BAF1010A8A
:101CF000F7D22078C00602D52046FEF7D1FB6E460B
:101D000009E016F8010B3E280FD0D4E901219047D5
:101D1000206A401C2062B8F10108F2D22046FEF78A
:101D2000D5FB09B00320BDE8F08F206A284420626B
:101D300003E0D4E90121302090476D1EEBD3F8E792
:101D4000F1BC020002FCFFFF2DE9F0411F460446F2
:101D500003260168072A01F4006004DB08B116A518
:101D600005E016A503E008B115A500E015A521F0D2
:101D700010002060A069C01EA0610FB1401EA061CC
:101D80002046FEF78DFB4FB1D4E90121384690473C
:101D9000206A401C2062C01C206206E0206AFAE72C
:101DA000D4E9012115F8010B9047761EF8D22046A0
:101DB000FEF78CFBBDE8F0814E414E006E616E0077
:101DC000494E4600696E660010B5436913B1AFF322
:101DD000008001E0FFF7D0F9012010BD128800F16A
:101DE000240182840022C2840122EDE711684FF0B1
:101DF000FF32E9E72DE9F05F824615468B46002762
:101E00000AF10104B9460078302801D09DB113E0F1
:101E100014F8010B0127782803D0582801D045B1C8
:101E20000AE00DB1102D07D1002714F8010B102581
:101E300002E0082500E00A250026B0460EE005FB7A
:101E4000080005FB06F101271FFA80F801EB104698
:101E5000B6F5803F00D3B94614F8010B294600F0CF
:101E6000E3F80028EBDABBF1000F05D00FB1641ED8
:101E700000E05446CBF80040B9F1000F06D0FEF761
:101E80005FFE02210160C81EBDE8F09F48EA0640DF
:101E9000FAE700002DE9F047814616468AB035483A
:101EA00078440DC88DE80D0032487844801C03AC9E
:101EB0000DC884E80D0041F69B300844372190FBA3
:101EC000F1F290FBF1F5A5F1800501FB12041B3C3A
:101ED00002D56442012000E00020DFF898A080468F
:101EE0000027FA44AAF1BE0A0EE0E0070AD0324603
:101EF000684607EB470101230AEB810100F024FE4D
:101F00008DE8070064107F1C002CEED1194F7F4430
:101F1000AE3F19E0E80715D007EB04100DF1180AE1
:101F200090E80E008AE80E00C068F04201D19819CE
:101F300008903246012306A903A800F005FE03AB72
:101F400083E807006D10641C002DE3D14FF00103FE
:101F500032466946B8F1000F03A802D000F0CAFD6E
:101F600001E000F0F1FDC9E90001C9F808200AB05C
:101F7000BDE8F08734BA020070B516460C46054637
:101F8000FEF7D2FD036893F80101012806D0FF2C6B
:101F90000FD8185D68B101202C7070BDD3F807010F
:101FA0003246214603F2071303442846BDE8704039
:101FB00018474FF0FF3070BD10B500F07BFABDE858
:101FC000104000F072BA70477546FFF7CFFCAE467E
:101FD00005006946534620F00700854618B020B535
:101FE000FEF75CF9BDE820404FF000064FF0000717
:101FF0004FF000084FF0000B21F00701AC46ACE8B1
:10200000C009ACE8C009ACE8C009ACE8C0098D461D
:10201000704710B5FEF794FD006810BD10B504467A
:10202000FEF78EFD046010BD3A2800D2303820F053
:102030002002412A01D3A2F13700884201D34FF098
:10204000FF3070472DE9FF4F1F464FF03C0987B026
:102050004FF00042DDE9141001F10108DDF858A04D
:1020600002EA40500390002005908346054604464E
:102070000490B969461E08988847AAF1010A02909F
:10208000BAF1000F3BDD02982E2815D01021FFF782
:10209000CBFF00282EDB4FF0010B0599014317D031
:1020A000B9F1000F0BDB4A46C11700F031FA0543C6
:1020B0000C43A9F1040905E0012004900BE008B1EC
:1020C00045F0010501200590049820B9361D02E075
:1020D000049800B1361FB969089808F101088847CB
:1020E000BBF1000FAAF1010A0290C9D00999C1F809
:1020F0000080C5E70298702808D0502806D0F969FA
:1021000008988847BBF1000F14D04FE000200290E0
:102110000120BBF1000F049009D0B969089808F1BB
:1021200001088847AAF10109B9F1000F07DCF96934
:10213000089888476FF001000BB0BDE8F08F2B289E
:1021400004D02D280CD14FF0FF300490B9690898C5
:1021500008F101088847A9F10109B9F1000FE6DD8E
:10216000411CE4D00A21FFF75FFF0028DFDB029962
:1021700008F1010801EB810100EB41000290B9690F
:10218000089888470A21FFF74FFF099AA9F101092A
:10219000B9F1000FC2F8008001DD0028E7DAF96923
:1021A000089888470499029800FB016655EA0400E4
:1021B00004D004F04041090002D006E0039898E002
:1021C000A40044EA9574AD00B61E04F00041080076
:1021D00002D16D196441761E159810F0240F03D0BA
:1021E0004FF00B095C4803E04FF028096FF07D00C9
:1021F0008246564507DAAAEB06018944B9F1410F38
:1022000001DD4FF0410901200021A9F1010200F098
:102210007FF9024628400B462140084301D00121A6
:1022200000E00021501E029143F1FF31284021407F
:10223000084301D0012000E000200299834651EAC2
:102240000B014FD0002108464FF00000039900F425
:10225000400039B100EB80004FF4400100EBD0703A
:1022600001EA60008015012802DD4FF0FF3000E038
:1022700013D0401C36D0029860B3BBF1000F0CD1D4
:102280004A460120002100F043F92840214008433C
:1022900001D0012000E00020E0B101204A460021E9
:1022A00000F036F9034640190A4661412D1A8C4167
:1022B00011D3B9F1400F09DD159810F0240F02D0A9
:1022C000AAF1340603E0AAF1170600E0761C002507
:1022D0004FF0004406E05B1E42F1FF3220EA0305A6
:1022E00021EA0204CAF10100B04206DA1B49039850
:1022F00008430190002000900EE0039AC4F3D3211C
:10230000E80A0A43164940EA44500A433146CDE9F7
:102310000002684605F00AFC159810F0240F0BD057
:102320001598C00715D13868DDE90012031D3B6020
:102330000068C0E900120CE002A8694605F090FBB5
:102340001598C00705D13868029A011D39600068E8
:1023500002604046F0E6000002FCFFFF0000F07F54
:102360000000F03F2DE9FF4F92461D4685B04FF02B
:102370000041DDE9124BDDE914727F1E01EA4B508A
:10238000414940F0FF4940EA0108002122F02000C5
:102390004928049102D04E2828D04CE03BA00126C9
:1023A00007C88DE80700A9690698641C88477F1E46
:1023B000014606D41DF8060018B121F02001814223
:1023C0000BD0E96906988847032E34D0082E32D006
:1023D0006FF0010009B0BDE8F08F761C032E01D02C
:1023E000082EE0D1601CCAF80000DCE7A969069855
:1023F000641C88477F1E2AD420F02000412826D163
:10240000A9690698641C88477F1E20D420F020000C
:102410004E281CD1A9690698641C88477F1E48F481
:10242000002849F48009CAF8004001D4282806D0C1
:10243000E969069888475FEACB7012D022E0A96963
:102440000698641C88477F1E01D4002803DAE969D6
:1024500006988847BCE72928F1D1641CCAF80040D7
:10246000E9E71BF0240F07D028680499031D2B60AF
:102470000068C0E9001805E02868021D2A600068AD
:10248000C0F800902046A5E70000F07F494E46497D
:102490004E4954590000000010B50446AFF30080C7
:1024A0002046BDE81040FDF7E4BE002801D000F052
:1024B00029B8704710B5012805D0002103A000F00D
:1024C0003AF8012010BD09A1F8E70000534947522E
:1024D000544D454D3A204F7574206F6620686561F4
:1024E00070206D656D6F7279000000003A204865BC
:1024F0006170206D656D6F727920636F7272757097
:102500007465640001491820ABBEFEE72600020096
:10251000B2F120030AD5C2F1200301FA02F120FA38
:1025200003F300FA02F041EA0301704700FA03F1F5
:102530004FF00000704770B505460C460A2000E0D9
:102540006D1C00F011F835B128780028F8D102E0B0
:10255000641C00F009F814B120780028F8D1BDE817
:1025600070400A20AFF3008008B569468DF800007E
:102570000320ABBE08BD5FEA400C08BF91F0000F1E
:102580004FEA8C234FEAC12243EA51514FEA1C50D3
:1025900018BF00F5F0404FEA300018BF41F000418D
:1025A0005FEA6C5C00F02980BCF1FF3F08BF40F09F
:1025B00080407047130C06BF12044FF0100C4FF010
:1025C000000C130E04BF12020CF1080C130F04BF11
:1025D00012010CF1040C930F04BF92000CF1020CD9
:1025E000D30F04BF52000CF1010C11464FF0000252
:1025F000A0F11F00A0EB0C00704711F0004F08BFC6
:10260000704731F000413FF4D5AF0B0C06BF090411
:102610004FF0100C4FF0000C0B0E04BF09020CF130
:10262000080C0B0F04BF09010CF1040C8B0F04BF45
:1026300089000CF1020CCB0F04BF49000CF1010C16
:10264000CCF12003A0EB0C0022FA03F302FA0CF207
:1026500041EA030100F10100704720F07F4C80EA5D
:10266000030023F07F47ACEB070303F57C5300F036
:10267000004003F1FF032DE980494FEA154B09B4EF
:102680004FEA144325EA0B4E24EA03480FF20426CE
:1026900006EB132749083E785FEA320203FB066720
:1026A000C7F5000707FB06F64FEA54374FEAD64650
:1026B00006F1020607FB066CCCF1005C4FEA1C47F2
:1026C0002CEA074C07FB06F40CFB06F504EB154659
:1026D0004FEA961634BF00204FF000404FEAD13742
:1026E00006FB07FC4FEA1C4C0CFB0BF7D21B03FB51
:1026F0000CF761EB07010CFB0EF7B0EB074072EB38
:1027000017420CFB08F734BFA2EB0742B2EB0742BB
:1027100061EB17414FEA0C444FEA910706FB07FCB7
:102720004FEA1C4C0CFB0BF7B0EBC74072EB573277
:1027300003FB0CF734BFA2EBC742B2EBC74261EB1D
:1027400057310CFB0EF7B0EBC70072EB57720CFB66
:1027500008F734BFA2EBC702B2EBC70261EB5771B7
:10276000039F4FEA816141EA921104EBCC044FEAE6
:10277000D1374FEA826206FB07FC42EA90124FEA29
:1027800080604FEA1C4C0CFB0BF7D21B03FB0CF7D1
:1027900061EB07010CFB0EF7B0EB074072EB174241
:1027A0000CFB08F734BFA2EB0742B2EB074261EB28
:1027B00017414FEA8C554FEA910704EB9C2406FB26
:1027C00007FC4FEA1C4C0CFB0BF7B0EBC74072EB5D
:1027D000573203FB0CF734BFA2EBC742B2EBC74240
:1027E00061EB57310CFB0EF7B0EBC70072EB577281
:1027F0000CFB08F734BFA2EBC702B2EBC70261EBD8
:10280000577115EB4C254FEA816141EA92114FEA6D
:1028100082624FEAD13742EA901206FB07FC44F18C
:1028200000044FEA80604FEA1C4C0CFB0BF7D21BF4
:1028300003FB0CF761EB07010CFB0EF7B0EB074055
:1028400072EB17420CFB08F734BFA2EB0742B2EB66
:10285000074261EB174115EB1C154FEA813141EA44
:1028600092414FEA823242EA90424FEA80304FEA88
:102870000C7644F1000448EA03434EEA0B484FF05B
:10288000000EB2EB080C71EB030724BF6246394619
:102890004EEB0E0E4FF0000B0018524149414BEB2E
:1028A0000B0BB2EB080C71EB03077BF1000B24BFA1
:1028B000624639464EEB0E0E4FF0000B00185241A7
:1028C00049414BEB0B0BB2EB080C71EB03077BF1AF
:1028D000000B24BF624639464EEB0E0E51EA02074A
:1028E00018BF46F0010616EB0E7655F1000254F1C2
:1028F000000103D5BDE88901BDE80088BDE8890174
:10290000BDE80048B619524141EB0101A3F10103B2
:10291000704780807F7E7D7C7B7A7978777676754C
:102920007473727171706F6E6E6D6C6C6B6A6A69C4
:102930006868676666656464636362616160605F5E
:102940005F5E5E5D5D5C5C5B5B5A5A5959585857D7
:10295000575656555555545453535252525151503F
:1029600050504F4F4F4E4E4D4D4D4C4C4C4B4B4B92
:102970004A4A4A49494948484847474747464646D8
:102980004545454444444443434343424242424113
:102990004141000046EA0646A3F570534FEA164649
:1029A00046EA42564FEAD22242EA415210B54FEA75
:1029B000D121A3F1010300F02FF820F0004000F135
:1029C000020C00F0004701EB00501146BCF5006F0F
:1029D00040EA070000D210BDBAF1000F0AD01CB5C2
:1029E00003B44FF004004FF004014FF000000FBC9F
:1029F000BDE810404FF00001BBF1010FB9BF044822
:102A00004FF0FF310348002140EA070010BD00BF2E
:102A1000FFFFEF7F0000F07F002B9C4630D4770053
:102A20002BD01CB54FEA370703B44FF010004FF01E
:102A30001001BAF1000F06D0BCF1000FDCBF40F06E
:102A4000080040F008014FF000000FBCBDE8104046
:102A50000BF1010BBBF1010F08BF5FEA170722BFA3
:102A600012F1010211F101014FF0004143F10003A5
:102A700000F0004043EA00007047F9D35708D0E760
:102A800046EA064613F1400F4FEA16461FDD13F1E2
:102A9000200FDFBF16430A46002120335B42BED021
:102AA000C3F1200746EA064602FA07F74FEA164640
:102AB00046EA0706C3F1200722FA03F201FA07F7F4
:102AC00021FA03F14FF0000342EA0702A7E746EAC2
:102AD000020646EA06464FEA164646EA0106BCBF2B
:102AE00046EA0646360C4FF000034FF000024FF066
:102AF000000194E72DE9804C9A46934670B491E822
:102B0000380007C831EA400C48BF34EA430C03D50B
:102B1000FFF7A3FDFFF780FFF0BCBDE8008C2DE9B7
:102B2000804C9A46934670B491E8380007C831EA61
:102B3000400C48BF34EA430C03D5FFF78EFDFFF786
:102B400029FFF0BCBDE8008C2DE9804C9A469346E5
:102B500070B491E8380007C810F0804F08BF13F038
:102B6000804F03D100F01AF8FFF756FFF0BCBDE824
:102B7000008C2DE9804C9A46934670B491E8380059
:102B800007C810F0804F08BF13F0804F03D100F04A
:102B900005F8FFF7FFFEF0BCBDE8008C20F07F4792
:102BA00080EA030023F07F4C07EB0C03A3F57C5372
:102BB00000F00040A3F1FE0392F0000F00F0B3809C
:102BC00095F0000F00F077802DE901494FEA1140A0
:102BD0004FEA144621EA004800FB06FC24EA0647B7
:102BE00008FB06F607FB08F800FB07F718EB06489A
:102BF0004CEB164C4FEA124B18EB07484FEA1546C0
:102C00004CEB174022EA0B4E0BFB06FC25EA06476D
:102C10000EFB06F607FB0EFE0BFB07F71EEB064E40
:102C20004CEB164C4FF000061EEB074E4CEB174BCF
:102C300018EB0B0840F1000018EB0E0B58EB0008E6
:102C400040F100008F1A4FF000013CBFC943661BE2
:102C500014BFB5EB040C00213CBFC943F61B4FEA7F
:102C600017444EEA8E0E27EA04454FEA1C4704FB40
:102C700007622CEA074C05FB07F70CFB05F604FB83
:102C80000CFC16EB074642EB174216EB0C4642EBE8
:102C90001C421BEB060658EB0202414146EA9E0627
:102CA00001D5BDE80189B619524141EB0101A3F1FB
:102CB0000103BDE801894FEA14454FEA114724EAB0
:102CC000054621EA074C05FB07F406FB07F70CFB5A
:102CD00006F105FB0CFC11EB074144EB17444FEAEE
:102CE000124711EB0C4144EB1C4422EA074C05FB54
:102CF00007F206FB07F70CFB06F605FB0CFC16EBD0
:102D0000074642EB174216EB0C4642EB1C456A188D
:102D100054F1000148BF7047B619524141EB01011F
:102D2000A3F10103704795F0000F37D04FEA11422D
:102D30004FEA144721EA024624EA074C02FB07F156
:102D400006FB07F70CFB06F402FB0CFC14EB074434
:102D500041EB17414FEA154714EB0C4441EB1C4182
:102D600025EA074C02FB07F506FB07F70CFB06F606
:102D700002FB0CFC16EB074645EB174516EB0C4621
:102D800045EB1C42121951F1000148BF7047B619BA
:102D9000524141EB0101A3F1010370474FEA144591
:102DA0004FEA114724EA054621EA074C05FB07F1E3
:102DB00006FB07F70CFB06F24FF0000605FB0CFCC8
:102DC00012EB074241EB174112EB0C4251EB1C4155
:102DD00048BF7047921841EB0101A3F1010370470E
:102DE00070B5044600252068806800F00100F0B14D
:102DF0002068806820F001002168886001F098F860
:102E000005460EE001F094F8401B022809D9A06A9B
:102E100040F01000A062E06A40F00100E062012092
:102E200070BD2068806800F001000028EAD1002011
:102E3000F6E770B505466C6AA06A00F05000E0B98C
:102E4000A06A40F40070A0622068806800F46020EE
:102E5000B0F5602F0DD1207B58B9A06A20F48070A6
:102E6000A062A06A00F4805018B9A06A40F0010086
:102E7000A062204600F00CFC03E0206A016B2846AB
:102E8000884770BD70B505466C6AA06A40F0400086
:102E9000A062E06A40F00400E062204600F0FAFB25
:102EA00070BD70B50446656A284600F0F2FB70BD3F
:102EB00038B504460025002000902068806800F0A6
:102EC000010080BB2068806840F0010021688860B4
:102ED000164800681649B0FBF1F0009002E0009837
:102EE000401E009000980028F9D101F021F8054615
:102EF00013E001F01DF8401B02280ED9A06A40F033
:102F00001000A062E06A40F00100E06200BF002013
:102F100084F8240000BF012038BD2068806800F0DC
:102F200001000028E5D00020F6E70000380000206E
:102F300040420F0000BFFEE730B590F8405001243A
:102F4000AC40C56B6C60046863604468102C04D1AD
:102F50000468A2600468E16003E00468A16004689A
:102F6000E26030BD7047000010B580210348FDF7D6
:102F70004DFD00200249088010BD0000A80400207B
:102F80005400002070B50546002400BF00F08CF905
:102F900080B90DA10E48FDF746FC044654B13A2114
:102FA0002046FDF724FC044614B1641C204670BD85
:102FB0000020FCE7052005F031F9681E85B2002DE0
:102FC000E4DC0020F3E700004950442C000000003E
:102FD000A804002000B585B000BF4748806940F0D4
:102FE0001000454988610846806900F01000009093
:102FF00000BF00BF0120029001900320049001A9AE
:103000003E4800F0DDFD002201213C4800F08AFF2F
:10301000FA2005F003F901221146384800F082FF3A
:103020004FF4FA7005F0FAF8FFF79EFF34A1364826
:1030300004F086FC03E04FF4FA7005F0EFF833A1DA
:1030400033A000F0E3F80028F5D133A12E4804F0B6
:1030500077FC30A133A000F0D9F84FF4FA7005F0F6
:10306000DDF82CA132A000F0D1F84FF4FA7005F091
:10307000D5F833A1244804F063FC03E04FF4FA7060
:1030800005F0CCF821A131A000F0C0F80028F5D15E
:1030900032A11D4804F054FC03E04FF4FA7005F02F
:1030A000BDF81AA131A000F0B1F80028F5D133A184
:1030B000154804F045FC03E04FF4FA7005F0AEF853
:1030C00031A133A000F0A2F80028F5D138A10E48B4
:1030D00004F036FC03E04FF4FA7005F09FF838A1D5
:1030E00039A000F093F80028F5D142A1064804F079
:1030F00027FC05B000BD0000001002400010014098
:10310000302E2041540D0A00003801404F4B000082
:1031100041540D0A00000000312E205253540D0A74
:103120000000000041542B5253540D0A00000000CF
:1031300041542B434950434C4F53450D0A00000066
:10314000322E2043574D4F44450D0A0041542B4326
:10315000574D4F44453D310D0A000000332E2041AC
:10316000542B4357444843500D0A000041542B430D
:1031700057444843503D312C310D0A00342E204332
:10318000574A41500D0A0000474F54204950000053
:1031900041542B43574A41503D227265616C6D6525
:1031A000222C22797932303030343236220D0A0026
:1031B000352E2043495053544152540D0A0000000B
:1031C000434F4E4E4543540041542B4349505354B2
:1031D0004152543D22544350222C2262726F6B653F
:1031E000722E656D71782E696F222C313838330D4F
:1031F0000A000000362E204553503832363620491A
:103200006E6974204F4B0D0A000000002DE9F0415B
:1032100004460D46C8262046FDF717FB87B23A46FE
:1032200021460D4804F0AAFB0FE000F03DF848B934
:1032300029460A48FDF7F7FA20B1FFF795FE00206E
:10324000BDE8F0810A2004F0E9FF301EA6F101017B
:10325000CEB2EAD10120F3E700440040A8040020E8
:1032600030B589B004460D46FFF77EFE2A4608A118
:1032700001A8FDF7FFF80AA101A8FFF7C7FF20B9D1
:103280002A462146074804F079FB09B030BD00000A
:1032900041542B43495053454E443D25640D0A008B
:1032A0003E000000004400400A48008808B90120A0
:1032B00070470848008808490988884203D10020DF
:1032C00004490880F4E70348008803490880012086
:1032D000EEE70000540000205600002010B5012049
:1032E00000F060FC01200149086010BD1404014099
:1032F00010B5042000F056FC04200149086010BD00
:103300001404014010B5082000F04CFC08200149CD
:10331000086010BD1404014010B5102000F042FCFC
:1033200010200149086010BD1404014070B5044626
:10333000B3F5804F13D1D1E9000540EA05108D683F
:1033400040EA05208D6928438D8940EA054054F8FC
:103350002250064E3540284344F8220003E06FF027
:10336000704044F82200002070BD00000000F0CF43
:1033700070B50246086852F8200020F001000E687F
:1033800042F826008868082801D1402300E0002385
:10339000486818438E683043CE6830430E69304326
:1033A0004E693043CE6930430E6A30434E6A304333
:1033B0008E6A3043CE6A30430E6B40EA0604886959
:1033C0000443486B0443074D45F4806545F4E0250C
:1033D000086852F82000A84320430E6842F82600EF
:1033E000002070BD7FFB080010B50346D1E9000442
:1033F00040EA04108C6840EA04208C8940EA0444C6
:10340000088A401E44EA0054087D801E44EA006099
:103410008C692043541C53F8244004F0404420435A
:10342000541C43F82400002010BD0000F8B50446E9
:1034300000260020009000BF94F82400012801D14C
:103440000220F8BD012084F8240000BF2046FFF7C9
:10345000C7FC0646002E62D1A06A20F4885040F0D6
:103460000200A062022000F019FE30490968B1FB99
:10347000F0F04000009002E00098401E009000989C
:103480000028F9D12046FFF713FD2068806840F03E
:1034900008002168886000F04BFD054611E000F04F
:1034A00047FD401B0A280CD9A06A20F0020040F01A
:1034B0001000A06200BF002084F8240000BF01209B
:1034C000BFE72068806800F008000028E7D1206886
:1034D000806840F004002168886000F029FD0546FE
:1034E00011E000F025FD401B0A280CD9A06A20F04D
:1034F000020040F01000A06200BF002084F8240009
:1035000000BF01209DE72068806800F004000028CB
:10351000E7D1A06A20F0020040F00100A06200BFE5
:10352000002084F8240000BF30468AE738000020DD
:1035300038B5024600230020009000BF92F8240016
:10354000012801D1022038BD012082F8240000BFEB
:103550004868072812D21068406B0C79641E04EB8F
:1035600084051F24AC40A0430D796D1E05EB850535
:103570000C68AC4020431468606327E048680D285D
:1035800012D21068006B0C79E41F04EB84051F2431
:10359000AC40A0430D79ED1F05EB85050C68AC40F0
:1035A00020431468206311E01068C06A0C790D3C58
:1035B00004EB84051F24AC40A0430D790D3D05EBC1
:1035C00085050C68AC4020431468E06208680A284E
:1035D00012D31068C0680C780A3C04EB4405072439
:1035E000AC40A0430D780A3D05EB45058C68AC4026
:1035F00020431468E0600FE0106800690C7804EB69
:1036000044050724AC40A0430D7805EB45058C68C4
:10361000AC402043146820610868102802D0086874
:10362000112827D1174C1068A0421ED1106880685D
:1036300000F40000F0B91068806840F400001468DD
:10364000A0600868102815D10F4800680F4CB0FB27
:10365000F4F000EB80004000009002E00098401E73
:10366000009000980028F9D104E0906A40F0200012
:103670009062012300BF002082F8240000BF18469A
:1036800061E70000002401403800002040420F00A4
:1036900070477047704700002DE9F041044600274D
:1036A00000250026A84614B90120BDE8F081A068D5
:1036B00010B1207D00B100BFA06A30B90020E062E7
:1036C00084F82400204600F097F82046FFF788FB96
:1036D0000746A06A00F01000002873D1002F7ED1A9
:1036E000A06A20F4885040F00200A0623F4AD4E96A
:1036F0000001904208D1E069B0F5402F02D14FF4AB
:10370000002002E0E06900E0E0690143207B41EA3B
:1037100040000643A068B0F5807F02D0A068012871
:1037200002D14FF4807000E000200543207D012885
:1037300011D1207B38B9A069401E4FF4006141EAE5
:103740004030054307E0A06A40F02000A062E06A34
:1037500040F00100E0622068406820F4694028439E
:10376000216848602068806821490840304321680A
:103770008860A068B0F5807F02D0A068012802D1DF
:103780004FF4807000E00020B0F5807F03D1208AE4
:10379000401E4FEA00582068C06A20F4700040EADA
:1037A00008002168C8622068806812490840B04259
:1037B00009D10020E062A06A20F0020040F0010080
:1037C000A06211E00BE0A06A20F0020040F01000BF
:1037D000A062E06A40F00100E062012704E0A06A14
:1037E00040F01000A062012738465EE7003C01402F
:1037F000FDF7E1FFFE0E1FFF704700002DE9F041CD
:1038000004460D461646002757492068884203D0D3
:1038100056492068884205D15348001D006800F4CD
:10382000702000E0002000287ED100BF94F8240022
:10383000012802D10220BDE8F081012084F8240093
:1038400000BF2046FFF734FB0746002F6DD1A06A6A
:1038500040F60161884340F48070A06243492068CB
:10386000884209D14048001D006800F4702008B962
:10387000012002E0002000E0012078B1A06A20F4DD
:103880008010A0622068406800F4806000B3A06AE5
:1038900020F4005040F48050A06219E0A06A40F487
:1038A0008010A06230492068884203D02F492068E8
:1038B000884205D12C48001D006800F4806000E0BB
:1038C000002028B1A06A20F4005040F48050A0628B
:1038D000A06A00F4805020B1E06A20F00600E062A7
:1038E00001E00020E06200BF002084F8240000BF57
:1038F0001F48216A88621F48216AC8621E48216ADF
:1039000008636FF00200216808602068806840F456
:10391000807021688860226802F14C0133462A4693
:10392000206A00F0AAF801E01AE014E0206880683C
:1039300000F46020B0F5602F06D12068806840F464
:10394000A000216888600CE02068806840F4801046
:103950002168886005E000BF002084F8240000E0B2
:103960000127384667E70000002401400028014095
:10397000332E0008A32E0008852E000801460022E1
:1039800009B9012070471E4B086898420BD21D4BA5
:103990000868C01A1423B0FBF3F0800008641948CB
:1039A0000838C8630AE0164B0868C01A1423B0FB35
:1039B000F3F08000086412480838C863022081F8D8
:1039C00021000868026843F6F0708243D1E90103E0
:1039D0001843CB6818430B6918434B6918438B692C
:1039E0001843CB69184302430868026000208863CB
:1039F000012081F82100002081F8200000BFC1E7EC
:103A000008040240080002402DE9F04104460D463A
:103A100016461F464FF0000800BF94F8200001280A
:103A200002D10220BDE8F081012084F8200000BF0F
:103A300094F82100012817D1022084F821000020E9
:103A4000A0632068006820F00100216808603B4600
:103A5000324629462046FFF76FFA2068006840F09A
:103A600001002168086006E000BF002084F8200003
:103A700000BF4FF002084046D4E72DE9F04104466C
:103A80000D4616461F464FF0000800BF94F8200070
:103A9000012802D10220BDE8F081012084F8200035
:103AA00000BF94F8210001282CD1022084F82100C5
:103AB0000020A0632068006820F0010021680860F1
:103AC0003B46324629462046FFF736FAE06A30B1D7
:103AD0002068006840F00E00216808600BE0206854
:103AE000006820F00400216808602068006840F049
:103AF0000A00216808602068006840F00100216821
:103B0000086006E000BF002084F8200000BF4FF0EE
:103B100002084046BFE7000010B50446142004F038
:103B20007DFB012C2DD0042C1FD0082C11D0102C83
:103B30002CD11021164800F0E3F948B91548007857
:103B4000012802D100201349087000201249087092
:103B50001CE008210E4800F0D3F928B900BF20214D
:103B60000B4800F0D5F900BF10E00421084800F030
:103B7000C7F928B900BF0221084800F0C9F900BF01
:103B800004E00121064800F0BBF900BF00BF10BDF2
:103B9000001801400000002001000020001001403A
:103BA0000008014010B5044604480068204020B1D8
:103BB000024804602046FFF7AFFF10BD1404014027
:103BC0002DE9F847024600239C467BE14FF00108AF
:103BD00008FA03F4D1F8008008EA0400A0427DD17D
:103BE000DFF8F4A2D1F80480A8EB0A09D0453AD056
:103BF00014DCB8F1030F50D009DCB8F1000F31D05C
:103C0000B8F1010F1CD0B8F1020F49D120E0B8F192
:103C1000110F18D0B8F1120F42D11EE0B9F5881F6C
:103C200025D006DCB9F5803F20D0B9F5801F37D10B
:103C30001AE0B9F5001F18D0B9F5041F30D117E00C
:103C4000D1F80CC02DE0D1F80C8008F1040C28E06C
:103C5000D1F80C8008F1080C23E0D1F80C8008F1B1
:103C60000C0C1EE000BF00BF00BF00BF00BF00BFC4
:103C7000D1F80880B8F1000F02D14FF0040C0BE02E
:103C8000D1F80880B8F1010F03D14FF0080C14618E
:103C900002E04FF0080C546103E04FF0000C00E02C
:103CA00000BF00BFFF2801D8904601E002F10408E0
:103CB0004646FF2802D84FEA830803E0A3F108082C
:103CC0004FEA88084746D6F800804FF00F0909FAF6
:103CD00007F928EA09080CFA07F900E07AE048EA4F
:103CE0000908C6F80080D1F8048008F08058B8F1BF
:103CF000805F6FD100BFDFF8E481D8F8188048F00A
:103D00000108DFF8D891C9F81880C846D8F818809B
:103D100008F00108CDF8008000BF00BF4FEAB938B5
:103D20004FEA930958F829504FEA83784FEA1879F7
:103D30004FF00F0808FA09F825EA0805DFF8A08116
:103D4000424502D14FF0000824E0DFF89881424557
:103D500002D14FF001081DE0DFF88C81424502D10D
:103D60004FF0020816E0DFF88481424502D14FF09F
:103D700003080FE0DFF87881424502D14FF00408D4
:103D800008E0DFF87081424502D14FF0050801E0FC
:103D90004FF006084FEA83794FEA197908FA09F8D3
:103DA00048EA0505DFF850814FEA930948F82950A1
:103DB000D1F8048008F48038B8F5803F0BD1DFF8E3
:103DC0003C81D8F8008048EA0008DFF83091C9F853
:103DD00000800AE075E0DFF82481D8F8008028EA46
:103DE0000008DFF81891C9F80080D1F8048008F4C1
:103DF0000038B8F5003F0ED1DFF8008108F1040863
:103E0000D8F8008048EA0008DFF8F09009F10409CA
:103E1000C9F800800DE0DFF8E48008F10408D8F864
:103E2000008028EA0008DFF8D49009F10409C9F8F5
:103E30000080D1F8048008F48018B8F5801F0ED1F6
:103E4000DFF8B88008F10808D8F8008048EA0008D0
:103E5000DFF8A89009F10809C9F800800DE0DFF843
:103E60009C8008F10808D8F8008028EA0008DFF8EC
:103E70008C9009F10809C9F80080D1F8048008F491
:103E80000018B8F5001F0ED1DFF8708008F10C089B
:103E9000D8F8008048EA0008DFF8609009F10C09C2
:103EA000C9F800800DE0DFF8548008F10C08D8F85C
:103EB000008028EA0008DFF8449009F10C09C9F8ED
:103EC00000805B1CD1F8008028FA03F8B8F1000FDD
:103ED0007FF47CAEBDE8F8870000111000100240AE
:103EE00000080140000C0140001001400014014096
:103EF00000180140001C014008000140000401407E
:103F0000024693680B400BB1012000E0002070478F
:103F100010B5C26821EA020302EA010443EA04433D
:103F2000036110BD0AB1016101E00B040361704738
:103F30000148006870470000400000200348006806
:103F4000034909780844014908607047400000208F
:103F50004800002010B50848006840F010000649ED
:103F60000860052000F080F80F2000F007F800F04E
:103F70002BF8002010BD00000020024070B5044660
:103F80000E4800784FF47A71B1FBF0F00C490968E3
:103F9000B1FBF0F5284600F083FE08B1012070BDAA
:103FA000102C07D200222146501E00F01EF80548B2
:103FB000046001E00120F2E70020F0E74800002063
:103FC00038000020440000207047014608460028C1
:103FD00009DB00F01F0301229A4043099B0003F113
:103FE000E023C3F8002100BF70472DE9F05F804651
:103FF0000D461646002703F007FD074639462A46B8
:10400000334601F00700C0F1070ABAF1040F02D9E4
:104010004FF0040A01E0C0F1070AD14600F1040A9A
:10402000BAF1070F02D24FF0000A01E0A0F1030A33
:10403000D4464FF0010A0AFA09FAAAF1010A0AEA7B
:10404000020A0AFA0CFA4FF0010B0BFA0CFBABF167
:10405000010B0BEA030B4AEA0B042146404603F02E
:10406000DBFCBDE8F09F000000BF00F00702064B3C
:1040700019684FF6FF031940044B0B4343EA022132
:10408000014B196000BF70470CED00E00000FA051D
:10409000012001490862704700000E422DE9F043FB
:1040A00085B0064642A30FCB01AC0FC444A0006804
:1040B00000904FF00008002500270024A146042EA0
:1040C00036D004DC012E3BD0022E6BD15FE0082EEF
:1040D00032D0102E66D13B484468006800F08070F2
:1040E00000B301A8C4F38341475C04F4803070B18D
:1040F00034484068C0F340401DF8008004F480302C
:1041000040B13148B0FBF8F000FB07F502E02F4862
:1041100007FB00F52B48406800F48000B0F5800FE5
:1041200001D1A94603E068000321B0FBF1F93AE0B0
:1041300000F0D2F9814636E000F0CEF9814632E057
:104140002048046A04F44070B0F5807F05D104F083
:10415000020010B14FF4004918E004F44070B0F5CB
:10416000007F07D11748406A00F0020010B149F6FD
:1041700040490BE004F44070B0F5407F06D111488F
:10418000006800F4003008B14FF224490BE000F061
:1041900093F90C494968C1F38131491C4900B0FBCE
:1041A000F1F900E000BF00BF484605B0BDE8F0836C
:1041B00002030405060708090A0B0C0D0E0F101068
:1041C000010200000010024000127A0000093D00C8
:1041D000F8B5044600260025207800F001000028EC
:1041E0006BD000274348C06900F0805070B900BF11
:1041F0004048C06940F080503E49C8610846C069E7
:1042000000F08050009000BF00BF01273A480068CE
:1042100000F48070B0B93848006840F480703649C6
:104220000860FFF785FE064606E0FFF781FE801B6B
:10423000642801D90320F8BD2F48006800F480707D
:104240000028F2D02B48006A00F440752DB3A088F6
:1042500000F44070A84220D02648006A20F440753F
:10426000012026490860002008602248056205F008
:10427000010090B1FFF75CFE064608E0FFF758FE2C
:10428000801B41F28831884201D90320D3E71948C5
:10429000006A00F002000028F0D01648006A20F4FE
:1042A00040706168084313490862012F04D1084631
:1042B000C06920F08050C86100BF207800F0020083
:1042C000022807D10B48406820F44040A168084309
:1042D00008494860207800F01000102807D10548F0
:1042E000406820F48000616908430249486000206A
:1042F000A1E700000010024000700040400442426C
:1043000070B504460D460CB9012070BD5A480068CE
:1043100000F00700A8420ED25748006820F00700BE
:104320002843554908600846006800F00700A84285
:1043300001D00120E9E7207800F0020002281DD119
:10434000207800F00400042805D14C48406840F46F
:10435000E0604A494860207800F00800082805D14C
:104360004648406840F460504449486043484068CB
:1043700020F0F000A168084340494860207800F030
:10438000010078B36068012806D13C48006800F459
:10439000003090B90120B8E76068022806D137489C
:1043A000006800F0007040B90120AEE733480068B3
:1043B00000F0020008B90120A7E73048406820F06B
:1043C0000300616808432D494860FFF7B1FD0646C8
:1043D00009E0FFF7ADFD801B41F28831884202D928
:1043E000032092E707E02548406800F00C00616870
:1043F000B0EB810FEDD12048006800F00700A84223
:104400000ED91D48006820F0070028431A490860AB
:104410000846006800F00700A84201D0012074E7B8
:10442000207800F00400042807D11448406820F4E4
:10443000E060E168084311494860207800F0080016
:10444000082808D10D48406820F46050216940EAEE
:10445000C1000A49486000F03FF808494968C1F3C3
:104460000311074A515CC8400649086006480068C5
:10447000FFF784FD002048E70020024000100240C2
:1044800098E9000838000020440000200148006836
:10449000704700003800002000B5FFF7F7FF04491F
:1044A0004968C1F30221034A515CC84000BD0000C5
:1044B00000100240A8E9000800B5FFF7E7FF044933
:1044C0004968C1F3C221034A515CC84000BD0000E5
:1044D00000100240A8E90008F0B585B00FF26C0C9E
:1044E0009CE8E01001A8A0E8E0101CA52D6800954C
:1044F00000210022002300240020194D696801F0EA
:104500000C05F5B1042D02D0082D19D101E0154894
:1045100019E001ADC1F38346AC5D01F4803555B1BE
:104520000F4D6D68C5F340451DF805200D4D6543E1
:10453000B5FBF2F302E00C4D04FB05F3184602E074
:1045400000BF084800BF00BF05B0F0BD020304056E
:10455000060708090A0B0C0D0E0F101001020000CF
:104560000010024000127A0000093D00F8B5044630
:104570000CB90120F8BD207800F00100002878D0A7
:10458000F848406800F00C0004280CD0F54840685A
:1045900000F00C00082811D1F248406800F4803087
:1045A000B0F5803F0AD1EF48006800F400300028E1
:1045B0005FD0606800285CD10120DBE700BF606845
:1045C000B0F5803F06D1E748006840F48030E54907
:1045D000086028E0606858B9E248006820F480303C
:1045E000E04908600846006820F4802008601AE06E
:1045F0006068B0F5A02F0BD1DA48006840F4802045
:10460000D84908600846006840F4803008600AE035
:10461000D448006820F48030D24908600846006819
:1046200020F48020086000BF606888B1FFF780FC3C
:10463000054606E0FFF77CFC401B642801D90320F7
:1046400098E7C848006800F400300028F2D010E075
:10465000FFF76EFC054606E0FFF76AFC401B642886
:1046600001D9032086E7BF48006800F40030002825
:10467000F2D1207800F00200022857D1B9484068F2
:1046800000F00C0050B1B748406800F00C0008285A
:1046900018D1B448406800F4803098B9B148006837
:1046A00000F0020020B12069012801D0012061E75B
:1046B000AC48006820F0F800616940EAC100A949EF
:1046C000086033E02069E8B10120A7490860FFF7DE
:1046D0002FFC054606E0FFF72BFC401B022801D902
:1046E000032047E79F48006800F002000028F2D04E
:1046F0009C48006820F0F800616940EAC1009949CF
:10470000086013E0002098490860FFF711FC054697
:1047100006E0FFF70DFC401B022801D9032029E722
:104720009048006800F002000028F2D1207800F0E4
:10473000080008282DD1A069B8B101208B49086074
:10474000FFF7F6FB054606E0FFF7F2FB401B0228E9
:1047500001D903200EE78348406A00F002000028D8
:10476000F2D0012002F0E0FB13E000207F49086056
:10477000FFF7DEFB054606E0FFF7DAFB401B0228E9
:1047800001D90320F6E67748406A00F002000028CD
:10479000F2D1207800F00400042873D1002771487A
:1047A000C06900F0805070B900BF6E48C06940F029
:1047B00080506C49C8610846C06900F08050009084
:1047C00000BF00BF01276A48006800F48070B0B9DC
:1047D0006748006840F4807065490860FFF7A8FBEF
:1047E000054606E0FFF7A4FB401B642801D903201F
:1047F000C0E65F48006800F480700028F2D000BF77
:10480000E068012806D15748006A40F00100554988
:10481000086227E0E06858B95248006A20F00100B9
:10482000504908620846006A20F00400086219E056
:10483000E06805280BD14B48006A40F00400494964
:1048400008620846006A40F0010008620AE0454834
:10485000006A20F00100434908620846006A20F01F
:104860000400086200BFE068A0B1FFF761FB0546E5
:1048700009E0FFF75DFB401B41F28831884202D915
:10488000032077E622E03748006A00F002000028A3
:10489000EFD012E0FFF74CFB054608E0FFF748FBBE
:1048A000401B41F28831884201D9032062E62D483D
:1048B000006A00F002000028F0D1012F05D129483C
:1048C000C06920F080502749C86100BFE069C8B3C3
:1048D0002448406800F00C00082860D0E0690228F5
:1048E00048D1002020490866FFF722FB054606E074
:1048F000FFF71EFB401B022801D903203AE61948A6
:10490000006800F000700028F2D1206AB0F5803F06
:1049100007D11448406820F40030A16808431149C9
:104920004860D4E9080108430E49496821F474112C
:1049300008430C49486001200B490866FFF7F8FA64
:10494000054607E03DE0FFF7F3FA401B022801D9D6
:1049500003200FE60348006800F000700028F2D042
:104960002FE000000010024000004242800442425A
:1049700000700040002014490866FFF7D9FA054688
:1049800006E0FFF7D5FA401B022801D90320F1E524
:104990000E48006800F000700028F2D111E0E069D4
:1049A000012800D1E6E50948466806F48031206A0E
:1049B000814204D106F47011606A814201D0012065
:1049C000D8E50020D6E50000000042420010024079
:1049D00010B5034600220020024A02EB810214684F
:1049E000A0B210BD006C004010B503460020034883
:1049F00000EB810094B2046010BD0000006C004028
:104A000070B5044600250CB9012070BD607C20B94A
:104A100000202074204600F05BF8022060742046DD
:104A200000F0A2F818B1042060740120EDE72046E0
:104A300002F08EFA18B1042060740120E5E72068C6
:104A4000406820F0070021684860A06828B11F482E
:104A5000006820F001001D4908601C48001F006824
:104A600020F46070A16808431849091F0860606855
:104A7000401C08B1656809E00120FFF70FFB0546FF
:104A80001DB9042060740120BFE76D1E2068806896
:104A900020F00F0040EA1540216888602068C06857
:104AA00065F30F002168C860204602F06EFA18B165
:104AB000042060740120A8E70021E17301216173E3
:104AC000A1730120607400209FE70000306C00405B
:104AD00030B591B00546C82401202149086021481D
:104AE000006A40F001001F49086204E0601E84B2C1
:104AF000052003F093FB2CB11A48006A00F0020075
:104B00000028F3D0ACB90820079001200A900020BB
:104B10000E9007A8FFF72AFD0120019040020290A5
:104B200001A8FFF755FB45F25101002009F056F8A6
:104B300014E00420079001200A9000200E9007A89E
:104B4000FFF714FD012001900002029001A8FFF779
:104B50003FFB45F25001002009F040F811B030BD94
:104B60003C0442420010024070B5044600250CB9D6
:104B7000012070BD2068406820F00800216848606E
:104B8000FFF7D6F9054607E0FFF7D2F9401BB0F56D
:104B90007A7F01D90320ECE72068406800F0080024
:104BA0000028F1D00020E4E770B504460E46154613
:104BB0001CB1A069B0F5807F01D1012070BD94F8CF
:104BC000410028B9002084F84000204600F020F879
:104BD00004F108012068FEF7CBFB3146A26820688B
:104BE000FEF702FC2946236BD4E90102FEF79EFB87
:104BF000A168206850F8210040F00100A2682168F7
:104C000041F82200012084F841000020D6E700008E
:104C100010B586B0044600BF1E48406940F480705D
:104C20001C4948610846406900F48070019000BF4B
:104C300000BF00BF0846806940F020008861084638
:104C4000806900F02000019000BF00BF00BF08464F
:104C5000806940F0400088610846806900F04000AB
:104C6000019000BF00BF4CF203700290022003903D
:104C7000012004900320059002A90748FEF7A0FF39
:104C80004FF68070029002A90448FEF799FF06B023
:104C900010BD000000100240001401400018014047
:104CA00070B504462546681EB0F1807F01D301200F
:104CB0000FE0681E4FF0E02148610F214FF0FF30F8
:104CC00002F0AAFE00204FF0E02188610720086171
:104CD000002070BD7047704710B504460CB9012024
:104CE00010BD94F83D0028B9002084F83C0020460F
:104CF00000F026F8022084F83D00211D206802F013
:104D00000FFB012084F8460000BF84F83E0001211B
:104D10003F200155402001554120015500BF00BFF3
:104D2000012084F8420043200155442001554520CC
:104D3000015500BF012084F83D000020D0E70000AD
:104D400038B504460E492068884217D100BF00BF1D
:104D50000C48C06940F010000A49C8610846C069A3
:104D600000F01000009000BF00BF00BF032201212F
:104D70003620FFF73AF93620FFF727F938BD000053
:104D80000010004000100240014691F83D0001284B
:104D900001D001207047022081F83D000868C068FA
:104DA00040F001000B68D860164B0868984213D099
:104DB000154B086898420FD00868B0F1804F0BD0AF
:104DC000124B0868984207D0114B0868984203D0EC
:104DD000104B086898420CD10868806800F0070200
:104DE000062A0CD00868006840F001000B681860C3
:104DF00005E00868006840F001000B6818600020BA
:104E0000C8E70000002C01400034014000040040CD
:104E100000080040000C0040704710B504462068B0
:104E20000069C0F34000D8B12068C068C0F34000FA
:104E3000B0B16FF00200216808610120207720687E
:104E4000806900F0030018B12046FFF7E5FF05E098
:104E5000204600F0ADF8204600F05DF900202077F4
:104E600020680069C0F38000D8B12068C068C0F332
:104E70008000B0B16FF00400216808610220207743
:104E80002068806900F4407018B12046FFF7C4FF25
:104E900005E0204600F08CF8204600F03CF90020A8
:104EA000207720680069C0F3C000D8B12068C068CE
:104EB000C0F3C000B0B16FF00800216808610420A1
:104EC00020772068C06900F0030018B12046FFF782
:104ED000A3FF05E0204600F06BF8204600F01BF928
:104EE0000020207720680069C0F30010D8B1206846
:104EF000C068C0F30010B0B16FF010002168086105
:104F0000082020772068C06900F4407018B120465E
:104F1000FFF782FF05E0204600F04AF8204600F047
:104F2000FAF8002020772068006900F0010058B1ED
:104F30002068C06800F0010030B16FF00100216806
:104F40000861204600F062F920680069C0F3C010D3
:104F500058B12068C068C0F3C01030B16FF0800055
:104F6000216808612046FFF7B5FE20680069C0F39C
:104F7000801058B12068C068C0F3801030B16FF065
:104F8000400021680861204600F060F9206800694F
:104F9000C0F3401058B12068C068C0F3401030B171
:104FA0006FF02000216808612046FFF794FE10BDD5
:104FB000704770B504460D46164600BF94F83C0095
:104FC000012801D1022070BD012084F83C0000BFFF
:104FD00036B1042E1BD0082E31D00C2E5ED145E008
:104FE0002946206802F0FCF92068806940F008003A
:104FF000216888612068806920F004002168886148
:1050000020688069296908432168886147E029464A
:10501000206802F01DFA2068806940F40060216871
:1050200088612068806920F4806021688861206838
:105030008069296940EA0120216888612FE02946BA
:10504000206802F043FA2068C06940F00800216837
:10505000C8612068C06920F004002168C861206828
:10506000C069296908432168C86118E02946206899
:1050700002F068FA2068C06940F400602168C861E5
:105080002068C06920F480602168C8612068C06918
:10509000296940EA01202168C86100E000BF00BF23
:1050A00000BF002084F83C0000BF00BF8BE710B5B4
:1050B00004460CB9012010BD94F83D0028B9002029
:1050C00084F83C00204600F025F8022084F83D00DA
:1050D000211D206802F024F9012084F8460000BF59
:1050E00084F83E0001213F20015540200155412018
:1050F000015500BF00BF012084F842004320015544
:10510000442001554520015500BF012084F83D0091
:105110000020D0E77047704770B504460D4615B9BA
:1051200094F83E000BE0042D02D13F20005D06E024
:10513000082D02D14020005D01E04120005D0128E2
:1051400001D0012070BD1DB9022084F83E000EE0A0
:10515000042D03D102213F20015508E0082D03D181
:1051600002214020015502E0022141200155012287
:105170002946206802F022F91F492068884203D09E
:105180001E492068884201D1012000E0002028B19A
:105190002068406C40F4004021684864164920684B
:1051A000884213D01549206888420FD02068B0F19A
:1051B000804F0BD012492068884207D011492068DF
:1051C000884203D01049206888420CD1206880684A
:1051D00000F00706062E0CD02068006840F00100A1
:1051E0002168086005E02068006840F0010021683F
:1051F00008600020A6E70000002C014000340140B8
:105200000004004000080040000C004010B50446B7
:105210000B492068884211D10A480078012805D13D
:1052200000BF01020848FEF773FE07E000BF00223E
:105230004FF480710448FEF775FE00BF10BD0000FA
:105240000010004000000020000C0140704710B525
:1052500004460CB9012010BDA06900B100E000BFF8
:1052600094F8390028B9002084F83800204600F06E
:1052700027F8242084F839002068C06820F4005002
:105280002168C860204602F087F92068006920F490
:105290009040216808612068406920F02A00216858
:1052A00048612068C06840F400502168C860002050
:1052B000E063202084F8390084F83A000020CAE72F
:1052C00070472DE9F84F04460E46174699464FF0B1
:1052D000000A94F8390020285AD106B117B90120E4
:1052E000BDE8F88F00BF94F83800012801D10220F2
:1052F000F6E7012084F8380000BF0020E063212099
:1053000084F83900FEF714FE8246A784E784A0687B
:10531000B0F5805F04D1206910B90025B04602E0E5
:1053200035464FF0000800BF002084F8380000BF69
:105330001BE05346002280212046CDF8009002F069
:10534000A9F908B10320CBE745B9B8F80000C0F3CC
:1053500008002168486008F1020803E02878216805
:1053600048606D1CE08C401EE084E08C0028E0D199
:105370005346002240212046CDF8009002F08AF9E1
:1053800008B10320ACE7202084F839000020A7E70B
:105390000220A5E700BFFEE701B584B0049801280C
:1053A00024DB0498042821DC4FF47840F7A118226C
:1053B0001346CDE900210290C8225021962006F024
:1053C0001BFF0020F54930231A46CDE90010D221F9
:1053D0003C2000F0E9FB0020F14930231A46CDE9DA
:1053E0000010D2214FF4AA7000F0DEFB04980128CF
:1053F00018D10420EB4980231A46CDE90010A021E2
:10540000084600F0D1FB4FF4FC60E7A118221346D8
:10541000CDE90021029078224FF4A071B42006F06B
:10542000EBFE73E30498022817D1E14980231A4662
:10543000CDE90010A021084600F0B6FB47F67C50ED
:10544000DCA118221346CDE90021029078224FF406
:10545000A071B42006F0D0FE58E30498032817D1B9
:105460000520D64980231A46CDE90010A021084620
:1054700000F09AFB1F20D2A118221346CDE900218B
:10548000029078224FF4A071B42006F0B5FE3DE3FF
:105490000498042818D10620CB4980231A46CDE968
:1054A0000010A021084600F07FFB4FF61F00C7A1A7
:1054B00018221346CDE90021029078224FF4A07102
:1054C000B42006F099FE21E3049805287ED14FF41C
:1054D0007840C0A110221346CDE900210290782225
:1054E0008021622006F088FEBD480078C0B94FF4E4
:1054F000FC60BCA110221346CDE9002102901822C5
:105500008021F02006F078FE0420B74920231A46B7
:10551000CDE9001080214FF4967000F045FB17E0B4
:105520004FF47840B1A110221346CDE9002102903A
:1055300018228021F02006F05FFE0020AA492023D7
:105540001A46CDE9001080214FF4967000F02CFB34
:105550004FF47840A6A110221346CDE90021029015
:105560007822B221622006F047FEA5480078C0B933
:105570004FF4FC609BA110221346CDE9002102905C
:105580001822B221F02006F037FE0420964920238D
:105590001A46CDE90010B2214FF4967000F004FBDA
:1055A00019E04FF4784091A110221346CDE9002173
:1055B00002901822B221F02006F01EFE00208A4937
:1055C00020231A46CDE90010B22100E096E04FF406
:1055D000967000F0E9FA4FF478408AA11022134641
:1055E000CDE9002102907822E421622006F004FE39
:1055F00087480078C0B94FF4FC607AA110221346A6
:10560000CDE9002102901822E421F02006F0F4FDFB
:105610000420754920231A46CDE90010E4214FF4F7
:10562000967000F0C1FA17E04FF478406FA1102295
:105630001346CDE9002102901822E421F02006F063
:10564000DBFD0020684920231A46CDE90010E42143
:105650004FF4967000F0A8FA4FF478406DA1102234
:105660001346CDE90021029078224FF48B7162201D
:1056700006F0C2FD6B480078D0B94FF4FC6059A128
:1056800010221346CDE90021029018224FF48B71AD
:10569000F02006F0B1FD0420534920231A46CDE93D
:1056A00000104FF48B714FF4967000F07DFA19E002
:1056B0004FF478404DA110221346CDE9002102900D
:1056C00018224FF48B71F02006F096FD0020464919
:1056D00020231A46CDE900104FF48B714FF49670D9
:1056E00000F062FA0020504930231A46CDE900103C
:1056F0004FF4B5713C2000F057FA07E204980628F1
:1057000043D14FF4784049A110221346CDE900213E
:105710000290642246216E2006F06EFD4FF4784020
:1057200045A110221346CDE90021029064224621B2
:105730004FF4867006F060FD4148007801280AD1D8
:105740004FF4FC604FF4AA73C8226E2100905020E1
:1057500006F092F809E04FF478404FF4AA73C8229B
:105760006E210090502006F087F83548007858B92F
:105770004FF4FC604FF4AA734FF4B4726E210090A2
:10578000F02006F079F868E05CE072E03C2D536DA3
:10579000617274486F6D652D3E00000098490108E4
:1057A000B84A010830390108436F6E74726F6C009B
:1057B000302101084D6F64650000000030290108A8
:1057C00053657474696E67003041010853656E73E8
:1057D0006F720000312E4C45445F537461203A00D3
:1057E00016000020206F6E001D4F01086F666600D6
:1057F000322E4375727461696E5F537461203A0092
:105800000C000020332E57696E5F537461203A00FC
:1058100014000020342E426565705F537461203A95
:105820000000000017000020F84C01084175746F5B
:105830004D6F6465000000004D616E4D6F64650042
:10584000150000204FF478404FF4AA734FF4B4725F
:105850006E210090F02006F00FF80020AC493023B4
:105860001A46CDE900104FF4B5713C2000F09CF9C8
:105870004CE1049807287DD14FF47840A5A110226F
:105880001346CDE90021029078228021622006F0A3
:10589000B3FC4FF47840002110220323CDE900210E
:1058A0000290A04802788021F02006F0DAFC002067
:1058B0009D4918232722CDE9001080214FF49670CE
:1058C00000F072F94FF4784098A110221346CDE908
:1058D000002102907822B221622006F08DFC4FF464
:1058E0007840002110220323CDE900210290934843
:1058F0000278B221F02006F0B4FC00208A49182377
:105900002722CDE90010B2214FF4967000F04CF937
:105910004FF478408AA110221346CDE9002102906D
:105920007822E421622006F067FC4FF478400021E1
:1059300010220323CDE90021029085480278E4215A
:10594000F02006F08EFC0020774918232722CDE9AD
:105950000010E4214FF4967000F026F94FF47840DF
:105960007CA110221346CDE90021029078224FF449
:105970008B7100E029E0622006F03EFC4FF4784095
:10598000002110220323CDE90021029075480278FE
:105990004FF48B71F02006F064FC0020624918235C
:1059A0002722CDE900104FF48B714FF4967000F070
:1059B000FBF80020564930231A46CDE900104FF479
:1059C000B5713C2000F0F0F8A0E004980828FBD165
:1059D0000420654920231A46CDE9001076218C2049
:1059E00000F0E2F84FF4784060A110221346CDE9B0
:1059F0000021029064228021F02006F0FDFB0020AF
:105A00001022CDE90020032302905A480278802119
:105A10004FF4967006F025FC0120574920231A46C2
:105A2000CDE90010A8218C2000F0BEF84FF478409A
:105A300052A110221346CDE9002102906422B22126
:105A4000F02006F0D9FB00201022CDE9002003232E
:105A500002904C480278B2214FF4967006F001FC97
:105A60000220494920231A46CDE90010DA218C2072
:105A700000F09AF84FF4784044A110221346CDE983
:105A8000002102906422E421F02006F0B5FB002002
:105A90001022CDE90020032302903E480278E42141
:105AA0004FF4967006F0DDFB03203B4920231A4695
:105AB000CDE900104FF486718C2000F075F84FF49A
:105AC000784036A110221346CDE9002102906422CD
:105AD0004FF48B71F02006F08FFB00201022CDE9EF
